{
  "contractName": "AnonAadhaarVerifier",
  "abi": [
    {
      "inputs": [
        {
          "internalType": "address",
          "name": "_verifierAddr",
          "type": "address"
        },
        {
          "internalType": "uint256",
          "name": "_appId",
          "type": "uint256"
        }
      ],
      "stateMutability": "nonpayable",
      "type": "constructor"
    },
    {
      "inputs": [
        {
          "internalType": "uint256",
          "name": "",
          "type": "uint256"
        }
      ],
      "name": "ISSUER_MODULUS",
      "outputs": [
        {
          "internalType": "uint256",
          "name": "",
          "type": "uint256"
        }
      ],
      "stateMutability": "view",
      "type": "function"
    },
    {
      "inputs": [],
      "name": "SNARK_SCALAR_FIELD",
      "outputs": [
        {
          "internalType": "uint256",
          "name": "",
          "type": "uint256"
        }
      ],
      "stateMutability": "view",
      "type": "function"
    },
    {
      "inputs": [],
      "name": "appId",
      "outputs": [
        {
          "internalType": "uint256",
          "name": "",
          "type": "uint256"
        }
      ],
      "stateMutability": "view",
      "type": "function"
    },
    {
      "inputs": [],
      "name": "verifierAddr",
      "outputs": [
        {
          "internalType": "address",
          "name": "",
          "type": "address"
        }
      ],
      "stateMutability": "view",
      "type": "function"
    },
    {
      "inputs": [
        {
          "internalType": "uint256[2]",
          "name": "a",
          "type": "uint256[2]"
        },
        {
          "internalType": "uint256[2][2]",
          "name": "b",
          "type": "uint256[2][2]"
        },
        {
          "internalType": "uint256[2]",
          "name": "c",
          "type": "uint256[2]"
        },
        {
          "internalType": "uint256[34]",
          "name": "input",
          "type": "uint256[34]"
        }
      ],
      "name": "verifyProof",
      "outputs": [
        {
          "internalType": "bool",
          "name": "",
          "type": "bool"
        }
      ],
      "stateMutability": "view",
      "type": "function"
    }
  ],
  "bytecode": "0x60806040527f30644e72e131a029b85045b68181585d2833e84879b9709143e1f593f000000160025560405180610400016040528067cd6bf509e976d19d67ffffffffffffffff1681526020016726ea69325fe89eb567ffffffffffffffff1681526020016706e5aacd3b15076b67ffffffffffffffff168152602001671c5e394a5373dc9867ffffffffffffffff1681526020016785960dc3593d2a5667ffffffffffffffff1681526020016798340b561d8b950a67ffffffffffffffff1681526020016787a8e77f38b7625367ffffffffffffffff168152602001674d2e6fab3b9ecb5067ffffffffffffffff16815260200167928db95d69ae8ca667ffffffffffffffff16815260200167dfd66525195b8db267ffffffffffffffff16815260200167f9d0f43c73dc5b0f67ffffffffffffffff168152602001670666211b3d659fb367ffffffffffffffff1681526020016757dcc2dad124c2d567ffffffffffffffff16815260200167a388cff4d1154f0967ffffffffffffffff16815260200167d804dfd99160a9e667ffffffffffffffff168152602001670742e28f0e14d70b67ffffffffffffffff16815260200167f35ebbe21df9bf5c67ffffffffffffffff1681526020016762be11c6b284ca7067ffffffffffffffff1681526020016782d195814604547967ffffffffffffffff168152602001670cb9d562ae49f09267ffffffffffffffff16815260200167e54faabe4e371f7c67ffffffffffffffff1681526020016712d8179931dce68b67ffffffffffffffff168152602001671f05e4d7d49db60167ffffffffffffffff16815260200167af17c38391a187be67ffffffffffffffff1681526020016721b171cf90c3c19b67ffffffffffffffff168152602001673c2b1ff03ee396fe67ffffffffffffffff168152602001670baeb5a43171ee3c67ffffffffffffffff1681526020016778658474092d749067ffffffffffffffff1681526020016762c4be2edfd7a99167ffffffffffffffff16815260200167cd7deac6a6ca692567ffffffffffffffff16815260200167b2fed1f10aaa8a0a67ffffffffffffffff16815260200167d5b5d41bc09aae1567ffffffffffffffff168152506003906020620003449291906200040c565b5034801562000351575f80fd5b506040516200102338038062001023833981810160405281019062000377919062000517565b6002548110620003be576040517f08c379a0000000000000000000000000000000000000000000000000000000008152600401620003b590620005e0565b60405180910390fd5b80600181905550815f806101000a81548173ffffffffffffffffffffffffffffffffffffffff021916908373ffffffffffffffffffffffffffffffffffffffff160217905550505062000600565b82602081019282156200044a579160200282015b8281111562000449578251829067ffffffffffffffff1690559160200191906001019062000420565b5b5090506200045991906200045d565b5090565b5b8082111562000476575f815f9055506001016200045e565b5090565b5f80fd5b5f73ffffffffffffffffffffffffffffffffffffffff82169050919050565b5f620004a9826200047e565b9050919050565b620004bb816200049d565b8114620004c6575f80fd5b50565b5f81519050620004d981620004b0565b92915050565b5f819050919050565b620004f381620004df565b8114620004fe575f80fd5b50565b5f815190506200051181620004e8565b92915050565b5f806040838503121562000530576200052f6200047a565b5b5f6200053f85828601620004c9565b9250506020620005528582860162000501565b9150509250929050565b5f82825260208201905092915050565b7f416e6f6e4161646861617256657269666965723a2067726f7570206964206d755f8201527f7374206265203c20534e41524b5f5343414c41525f4649454c44000000000000602082015250565b5f620005c8603a836200055c565b9150620005d5826200056c565b604082019050919050565b5f6020820190508181035f830152620005f981620005ba565b9050919050565b610a15806200060e5f395ff3fe608060405234801561000f575f80fd5b5060043610610055575f3560e01c80630c6bcd541461005957806325c2cd1214610089578063663ea2e2146100a757806380afdea8146100c55780638525a61d146100e3575b5f80fd5b610073600480360381019061006e9190610458565b610113565b6040516100809190610492565b60405180910390f35b61009161012c565b60405161009e9190610492565b60405180910390f35b6100af610132565b6040516100bc91906104ea565b60405180910390f35b6100cd610155565b6040516100da9190610492565b60405180910390f35b6100fd60048036038101906100f8919061056a565b61015b565b60405161010a91906105ea565b60405180910390f35b60038160208110610122575f80fd5b015f915090505481565b60025481565b5f8054906101000a900473ffffffffffffffffffffffffffffffffffffffff1681565b60015481565b5f600154826001602261016e9190610630565b6022811061017f5761017e610663565b5b6020020135146101c4576040517f08c379a00000000000000000000000000000000000000000000000000000000081526004016101bb90610710565b60405180910390fd5b5f6102068360228060200260405190810160405280929190826022602002808284375f81840152601f19601f82011690508083019250505050505060016102ff565b905060011515610215826103b9565b151514610257576040517f08c379a000000000000000000000000000000000000000000000000000000000815260040161024e9061079e565b60405180910390fd5b5f8054906101000a900473ffffffffffffffffffffffffffffffffffffffff1673ffffffffffffffffffffffffffffffffffffffff16638525a61d878787876040518563ffffffff1660e01b81526004016102b5949392919061089e565b602060405180830381865afa1580156102d0573d5f803e3d5ffd5b505050506040513d601f19601f820116820180604052508101906102f4919061090d565b915050949350505050565b60605f602067ffffffffffffffff81111561031d5761031c610938565b5b60405190808252806020026020018201604052801561034b5781602001602082028036833780820191505090505b5090505f5b60208110156103ae578481856103669190610965565b6022811061037757610376610663565b5b602002015182828151811061038f5761038e610663565b5b60200260200101818152505080806103a690610998565b915050610350565b508091505092915050565b5f80600190505f5b602081101561041757600381602081106103de576103dd610663565b5b01548482815181106103f3576103f2610663565b5b602002602001015114610404575f91505b808061040f90610998565b9150506103c1565b5080915050919050565b5f80fd5b5f819050919050565b61043781610425565b8114610441575f80fd5b50565b5f813590506104528161042e565b92915050565b5f6020828403121561046d5761046c610421565b5b5f61047a84828501610444565b91505092915050565b61048c81610425565b82525050565b5f6020820190506104a55f830184610483565b92915050565b5f73ffffffffffffffffffffffffffffffffffffffff82169050919050565b5f6104d4826104ab565b9050919050565b6104e4816104ca565b82525050565b5f6020820190506104fd5f8301846104db565b92915050565b5f80fd5b5f8190508260206002028201111561052257610521610503565b5b92915050565b5f8190508260406002028201111561054357610542610503565b5b92915050565b5f8190508260206022028201111561056457610563610503565b5b92915050565b5f805f80610540858703121561058357610582610421565b5b5f61059087828801610507565b94505060406105a187828801610528565b93505060c06105b287828801610507565b9250506101006105c487828801610549565b91505092959194509250565b5f8115159050919050565b6105e4816105d0565b82525050565b5f6020820190506105fd5f8301846105db565b92915050565b7f4e487b71000000000000000000000000000000000000000000000000000000005f52601160045260245ffd5b5f61063a82610425565b915061064583610425565b925082820390508181111561065d5761065c610603565b5b92915050565b7f4e487b71000000000000000000000000000000000000000000000000000000005f52603260045260245ffd5b5f82825260208201905092915050565b7f416e6f6e4161646861617256657269666965723a2077726f6e672061707020495f8201527f4400000000000000000000000000000000000000000000000000000000000000602082015250565b5f6106fa602183610690565b9150610705826106a0565b604082019050919050565b5f6020820190508181035f830152610727816106ee565b9050919050565b7f416e6f6e4161646861617256657269666965723a2077726f6e672069737375655f8201527f72207075626c6963206b65790000000000000000000000000000000000000000602082015250565b5f610788602c83610690565b91506107938261072e565b604082019050919050565b5f6020820190508181035f8301526107b58161077c565b9050919050565b82818337505050565b6107d1604083836107bc565b5050565b5f60029050919050565b5f81905092915050565b5f819050919050565b6107fe604083836107bc565b5050565b5f61080d83836107f2565b60408301905092915050565b5f82905092915050565b5f604082019050919050565b610838816107d5565b61084281846107df565b925061084d826107e9565b805f5b83811015610885576108628284610819565b61086c8782610802565b965061087783610823565b925050600181019050610850565b505050505050565b61089a61044083836107bc565b5050565b5f610540820190506108b25f8301876107c5565b6108bf604083018661082f565b6108cc60c08301856107c5565b6108da61010083018461088d565b95945050505050565b6108ec816105d0565b81146108f6575f80fd5b50565b5f81519050610907816108e3565b92915050565b5f6020828403121561092257610921610421565b5b5f61092f848285016108f9565b91505092915050565b7f4e487b71000000000000000000000000000000000000000000000000000000005f52604160045260245ffd5b5f61096f82610425565b915061097a83610425565b925082820190508082111561099257610991610603565b5b92915050565b5f6109a282610425565b91507fffffffffffffffffffffffffffffffffffffffffffffffffffffffffffffffff82036109d4576109d3610603565b5b60018201905091905056fea2646970667358221220e67eb0528c50949dbde1c1331f968e81be865c5f04d6657a6e2256a515df6ed464736f6c63430008150033",
  "immutableReferences": {},
  "source": "//SPDX-License-Identifier: Unlicense\npragma solidity ^0.8.4;\n\nimport \"./interfaces/IAnonAadhaarVerifier.sol\";\n\ncontract AnonAadhaarVerifier {\n    address public verifierAddr;\n    uint256 public appId;\n\n    uint256 public SNARK_SCALAR_FIELD = 21888242871839275222246405745257275088548364400416034343698204186575808495617;\n    // Production public key\n    // uint[32] public ISSUER_MODULUS = [7873437550307926165, 13477973865601442634, 1458039844062964693, 7398834103216365279, 12384545621709803393, 14386943674931866539, 2263535879398593693, 3600615314669141235, 13096864295899435543, 8628516684870087465, 343547845356630073, 10551339838260165529, 10902964543149146524, 4056605863534888131, 17764439819646281378, 5137209503034180614, 2378644744463171581, 6676194234629029970, 5432490752817224179, 12846544745292400088 , 3434369281354788863, 1533621309896666264, 18225262974130476508, 10073981006187788275, 8114837903070988230, 7632965149656839367, 2714276348828835947, 615665516684210923, 1084184375765016924, 17345989530239433420, 8106155243977228977, 11705466821727348154];\n    // Test PDF public key\n    uint[32] public ISSUER_MODULUS = [ 14802194023203656093, 2804169383069916853, 496991132330559339, 2044134272263249048, 9625896386217978454, 10967403457044780298, 9775317524806066771, 5561505371079494480, 10560300512109825190, 16129190325487635890, 18001156251078908687, 461092412729958323, 6331149421243581141, 11783897075401707273, 15565812337639205350, 523229610772846347, 17536660578867199836, 7115144006388206192, 9426479877521167481, 916998618954199186, 16523613292178382716, 1357861234386200203, 2235444405695526401, 12616767850953148350, 2427846810430325147, 4335594182981949182, 841809897173675580, 8675485891104175248, 7117022419685452177, 14807249288786766117, 12897977216031951370, 15399447716523847189];\n\n    constructor(address _verifierAddr, uint256 _appId) {\n        require(_appId < SNARK_SCALAR_FIELD, \"AnonAadhaarVerifier: group id must be < SNARK_SCALAR_FIELD\");\n        appId = _appId;\n        verifierAddr = _verifierAddr;\n    }\n\n    function verifyModulus(uint[] memory _inputModulus) private view returns (bool) {\n        bool isValid = true;\n        for (uint i = 0; i < 32; i++) {\n            if (_inputModulus[i] != ISSUER_MODULUS[i]) isValid = false;\n        }\n        return isValid;\n    }\n\n    function slice(uint256[34] memory data, uint256 start) private pure returns (uint256[] memory) {\n        uint256[] memory sliced = new uint256[](32);\n        \n        for (uint256 i = 0; i < 32; i++) {\n            sliced[i] = data[start + i];\n        }\n        \n        return sliced;\n    }\n\n    function verifyProof(\n        uint[2] calldata a, \n        uint[2][2] calldata b, \n        uint[2] calldata c, \n        uint[34] calldata input\n    ) public view returns (bool) {\n        require(input[input.length - 1] == appId, \"AnonAadhaarVerifier: wrong app ID\");\n        uint256[] memory inputModulus = slice(input, 1);\n        require(verifyModulus(inputModulus) == true, \"AnonAadhaarVerifier: wrong issuer public key\");\n        return IAnonAadhaarVerifier(verifierAddr).verifyProof(a, b, c, input);\n    }\n}",
  "sourcePath": "/Users/kalpitamandal/work/ETHIndia23/TotalRecall/contracts/AnonAadharVerifier.sol",
  "compiler": {
    "name": "solc",
    "version": "0.8.21+commit.d9974bed.Emscripten.clang"
  },
  "schemaVersion": "3.4.16",
  "updatedAt": "2023-12-09T13:50:28.494Z",
  "devdoc": {
    "kind": "dev",
    "methods": {},
    "version": 1
  },
  "userdoc": {
    "kind": "user",
    "methods": {},
    "version": 1
  }
}