{
  "contractName": "Factory",
  "abi": [
    {
      "inputs": [],
      "name": "CreateNewToken",
      "outputs": [],
      "stateMutability": "nonpayable",
      "type": "function"
    }
  ],
  "bytecode": "0x608060405234801561000f575f80fd5b50610ca48061001d5f395ff3fe608060405234801561000f575f80fd5b5060043610610029575f3560e01c806317b8153b1461002d575b5f80fd5b610035610037565b005b5f604051610044906100fd565b604051809103905ff08015801561005d573d5f803e3d5ffd5b5090505f803373ffffffffffffffffffffffffffffffffffffffff1673ffffffffffffffffffffffffffffffffffffffff1681526020019081526020015f2081908060018154018082558091505060019003905f5260205f20015f9091909190916101000a81548173ffffffffffffffffffffffffffffffffffffffff021916908373ffffffffffffffffffffffffffffffffffffffff16021790555050565b610b648061010b8339019056fe608060405234801561000f575f80fd5b50335f806101000a81548173ffffffffffffffffffffffffffffffffffffffff021916908373ffffffffffffffffffffffffffffffffffffffff160217905550610b088061005c5f395ff3fe608060405234801561000f575f80fd5b5060043610610091575f3560e01c80633a98ef39116100645780633a98ef391461010b5780638da5cb5b1461012957806390f4e4841461014757806399497e3b14610165578063a5c42ef11461018157610091565b806311342af8146100955780631940d09a146100b157806326d26da8146100cf5780633a673741146100ed575b5f80fd5b6100af60048036038101906100aa91906106af565b61019f565b005b6100b96102fb565b6040516100c691906106f2565b60405180910390f35b6100d7610301565b6040516100e491906106f2565b60405180910390f35b6100f5610307565b604051610102919061071a565b60405180910390f35b61011361032c565b60405161012091906106f2565b60405180910390f35b610131610332565b60405161013e919061071a565b60405180910390f35b61014f610355565b60405161015c919061071a565b60405180910390f35b61017f600480360381019061017a919061075d565b61037a565b005b61018961064b565b60405161019691906106f2565b60405180910390f35b5f60035490505f81036101e7576040517f08c379a00000000000000000000000000000000000000000000000000000000081526004016101de90610854565b60405180910390fd5b5f8290508073ffffffffffffffffffffffffffffffffffffffff166342842e0e3033856040518463ffffffff1660e01b815260040161022893929190610872565b5f604051808303815f87803b15801561023f575f80fd5b505af1158015610251573d5f803e3d5ffd5b505050505f805f6101000a81548173ffffffffffffffffffffffffffffffffffffffff021916908373ffffffffffffffffffffffffffffffffffffffff1602179055505f600381905550818373ffffffffffffffffffffffffffffffffffffffff163373ffffffffffffffffffffffffffffffffffffffff167fbbde41973f9ce4890f7ad9762c23d8191f261fd643bdf13ed8bbc10549b49fcb60405160405180910390a4505050565b60065481565b60055481565b60025f9054906101000a900473ffffffffffffffffffffffffffffffffffffffff1681565b60045481565b5f8054906101000a900473ffffffffffffffffffffffffffffffffffffffff1681565b60015f9054906101000a900473ffffffffffffffffffffffffffffffffffffffff1681565b5f83036103bc576040517f08c379a00000000000000000000000000000000000000000000000000000000081526004016103b3906108f1565b60405180910390fd5b5f82116103fe576040517f08c379a00000000000000000000000000000000000000000000000000000000081526004016103f59061097f565b60405180910390fd5b818111610440576040517f08c379a000000000000000000000000000000000000000000000000000000000815260040161043790610a0d565b60405180910390fd5b5f8590503373ffffffffffffffffffffffffffffffffffffffff168173ffffffffffffffffffffffffffffffffffffffff16636352211e876040518263ffffffff1660e01b815260040161049491906106f2565b602060405180830381865afa1580156104af573d5f803e3d5ffd5b505050506040513d601f19601f820116820180604052508101906104d39190610a3f565b73ffffffffffffffffffffffffffffffffffffffff1614610529576040517f08c379a000000000000000000000000000000000000000000000000000000000815260040161052090610ab4565b60405180910390fd5b8073ffffffffffffffffffffffffffffffffffffffff166342842e0e3330886040518463ffffffff1660e01b815260040161056693929190610872565b5f604051808303815f87803b15801561057d575f80fd5b505af115801561058f573d5f803e3d5ffd5b505050508560015f6101000a81548173ffffffffffffffffffffffffffffffffffffffff021916908373ffffffffffffffffffffffffffffffffffffffff160217905550836004819055508260058190555081600681905550848673ffffffffffffffffffffffffffffffffffffffff163373ffffffffffffffffffffffffffffffffffffffff167f2214288c094665e4969e2968c71e56e0ab3c69646a5c773ec8c2a7ca3bf1880860405160405180910390a4505050505050565b60035481565b5f80fd5b5f73ffffffffffffffffffffffffffffffffffffffff82169050919050565b5f61067e82610655565b9050919050565b61068e81610674565b8114610698575f80fd5b50565b5f813590506106a981610685565b92915050565b5f602082840312156106c4576106c3610651565b5b5f6106d18482850161069b565b91505092915050565b5f819050919050565b6106ec816106da565b82525050565b5f6020820190506107055f8301846106e3565b92915050565b61071481610674565b82525050565b5f60208201905061072d5f83018461070b565b92915050565b61073c816106da565b8114610746575f80fd5b50565b5f8135905061075781610733565b92915050565b5f805f805f60a0868803121561077657610775610651565b5b5f6107838882890161069b565b955050602061079488828901610749565b94505060406107a588828901610749565b93505060606107b688828901610749565b92505060806107c788828901610749565b9150509295509295909350565b5f82825260208201905092915050565b7f4e6f204e4654206465706f73697465642066726f6d207468697320636f6e74725f8201527f6163740000000000000000000000000000000000000000000000000000000000602082015250565b5f61083e6023836107d4565b9150610849826107e4565b604082019050919050565b5f6020820190508181035f83015261086b81610832565b9050919050565b5f6060820190506108855f83018661070b565b610892602083018561070b565b61089f60408301846106e3565b949350505050565b7f7368617265732073686f756c642062652067726561746572207468616e2030005f82015250565b5f6108db601f836107d4565b91506108e6826108a7565b602082019050919050565b5f6020820190508181035f830152610908816108cf565b9050919050565b7f49544f2070726963652073686f756c642062652067726561746572207468616e5f8201527f2030000000000000000000000000000000000000000000000000000000000000602082015250565b5f6109696022836107d4565b91506109748261090f565b604082019050919050565b5f6020820190508181035f8301526109968161095d565b9050919050565b7f726563616c6c2070726963652073686f756c64206265206772656174657220745f8201527f68616e2049544f20707269636500000000000000000000000000000000000000602082015250565b5f6109f7602d836107d4565b9150610a028261099d565b604082019050919050565b5f6020820190508181035f830152610a24816109eb565b9050919050565b5f81519050610a3981610685565b92915050565b5f60208284031215610a5457610a53610651565b5b5f610a6184828501610a2b565b91505092915050565b7f596f75206d757374206f776e20746865204e46540000000000000000000000005f82015250565b5f610a9e6014836107d4565b9150610aa982610a6a565b602082019050919050565b5f6020820190508181035f830152610acb81610a92565b905091905056fea264697066735822122069c959fd7df42e1f0d8e0a4b143283ec230ff8d928f894df280c94142749896964736f6c63430008150033a264697066735822122003e2a5221ffb7a8772f3b68394c5ecc78b75e9ec36fa77c0998373315c7ca39c64736f6c63430008150033",
  "immutableReferences": {},
  "source": "//SPDX-License-Identifier: Unlicense\npragma solidity ^0.8.19;\n\nimport {RWAVault} from \"./vault.sol\";\n\ncontract Factory {\n    mapping(address => RWAVault[]) vaultMapping;\n\n    function CreateNewToken() public {\n        RWAVault vault = new RWAVault();\n        vaultMapping[msg.sender].push(vault);\n    }\n}\n",
  "sourcePath": "/home/badass/Documents/ethindia23/contracts/VaultFactory.sol",
  "compiler": {
    "name": "solc",
    "version": "0.8.21+commit.d9974bed.Emscripten.clang"
  },
  "schemaVersion": "3.4.16",
  "updatedAt": "2023-12-09T06:59:15.799Z",
  "devdoc": {
    "kind": "dev",
    "methods": {},
    "version": 1
  },
  "userdoc": {
    "kind": "user",
    "methods": {},
    "version": 1
  }
}