{
  "contractName": "MyRWA",
  "abi": [
    {
      "inputs": [],
      "stateMutability": "nonpayable",
      "type": "constructor"
    },
    {
      "inputs": [
        {
          "internalType": "address",
          "name": "sender",
          "type": "address"
        },
        {
          "internalType": "uint256",
          "name": "tokenId",
          "type": "uint256"
        },
        {
          "internalType": "address",
          "name": "owner",
          "type": "address"
        }
      ],
      "name": "ERC721IncorrectOwner",
      "type": "error"
    },
    {
      "inputs": [
        {
          "internalType": "address",
          "name": "operator",
          "type": "address"
        },
        {
          "internalType": "uint256",
          "name": "tokenId",
          "type": "uint256"
        }
      ],
      "name": "ERC721InsufficientApproval",
      "type": "error"
    },
    {
      "inputs": [
        {
          "internalType": "address",
          "name": "approver",
          "type": "address"
        }
      ],
      "name": "ERC721InvalidApprover",
      "type": "error"
    },
    {
      "inputs": [
        {
          "internalType": "address",
          "name": "operator",
          "type": "address"
        }
      ],
      "name": "ERC721InvalidOperator",
      "type": "error"
    },
    {
      "inputs": [
        {
          "internalType": "address",
          "name": "owner",
          "type": "address"
        }
      ],
      "name": "ERC721InvalidOwner",
      "type": "error"
    },
    {
      "inputs": [
        {
          "internalType": "address",
          "name": "receiver",
          "type": "address"
        }
      ],
      "name": "ERC721InvalidReceiver",
      "type": "error"
    },
    {
      "inputs": [
        {
          "internalType": "address",
          "name": "sender",
          "type": "address"
        }
      ],
      "name": "ERC721InvalidSender",
      "type": "error"
    },
    {
      "inputs": [
        {
          "internalType": "uint256",
          "name": "tokenId",
          "type": "uint256"
        }
      ],
      "name": "ERC721NonexistentToken",
      "type": "error"
    },
    {
      "inputs": [
        {
          "internalType": "address",
          "name": "owner",
          "type": "address"
        }
      ],
      "name": "OwnableInvalidOwner",
      "type": "error"
    },
    {
      "inputs": [
        {
          "internalType": "address",
          "name": "account",
          "type": "address"
        }
      ],
      "name": "OwnableUnauthorizedAccount",
      "type": "error"
    },
    {
      "anonymous": false,
      "inputs": [
        {
          "indexed": true,
          "internalType": "address",
          "name": "owner",
          "type": "address"
        },
        {
          "indexed": true,
          "internalType": "address",
          "name": "approved",
          "type": "address"
        },
        {
          "indexed": true,
          "internalType": "uint256",
          "name": "tokenId",
          "type": "uint256"
        }
      ],
      "name": "Approval",
      "type": "event"
    },
    {
      "anonymous": false,
      "inputs": [
        {
          "indexed": true,
          "internalType": "address",
          "name": "owner",
          "type": "address"
        },
        {
          "indexed": true,
          "internalType": "address",
          "name": "operator",
          "type": "address"
        },
        {
          "indexed": false,
          "internalType": "bool",
          "name": "approved",
          "type": "bool"
        }
      ],
      "name": "ApprovalForAll",
      "type": "event"
    },
    {
      "anonymous": false,
      "inputs": [
        {
          "indexed": true,
          "internalType": "address",
          "name": "previousOwner",
          "type": "address"
        },
        {
          "indexed": true,
          "internalType": "address",
          "name": "newOwner",
          "type": "address"
        }
      ],
      "name": "OwnershipTransferred",
      "type": "event"
    },
    {
      "anonymous": false,
      "inputs": [
        {
          "indexed": true,
          "internalType": "address",
          "name": "from",
          "type": "address"
        },
        {
          "indexed": true,
          "internalType": "address",
          "name": "to",
          "type": "address"
        },
        {
          "indexed": true,
          "internalType": "uint256",
          "name": "tokenId",
          "type": "uint256"
        }
      ],
      "name": "Transfer",
      "type": "event"
    },
    {
      "inputs": [
        {
          "internalType": "address",
          "name": "to",
          "type": "address"
        },
        {
          "internalType": "uint256",
          "name": "tokenId",
          "type": "uint256"
        }
      ],
      "name": "approve",
      "outputs": [],
      "stateMutability": "nonpayable",
      "type": "function"
    },
    {
      "inputs": [
        {
          "internalType": "address",
          "name": "owner",
          "type": "address"
        }
      ],
      "name": "balanceOf",
      "outputs": [
        {
          "internalType": "uint256",
          "name": "",
          "type": "uint256"
        }
      ],
      "stateMutability": "view",
      "type": "function"
    },
    {
      "inputs": [
        {
          "internalType": "uint256",
          "name": "tokenId",
          "type": "uint256"
        }
      ],
      "name": "getApproved",
      "outputs": [
        {
          "internalType": "address",
          "name": "",
          "type": "address"
        }
      ],
      "stateMutability": "view",
      "type": "function"
    },
    {
      "inputs": [
        {
          "internalType": "address",
          "name": "owner",
          "type": "address"
        },
        {
          "internalType": "address",
          "name": "operator",
          "type": "address"
        }
      ],
      "name": "isApprovedForAll",
      "outputs": [
        {
          "internalType": "bool",
          "name": "",
          "type": "bool"
        }
      ],
      "stateMutability": "view",
      "type": "function"
    },
    {
      "inputs": [],
      "name": "name",
      "outputs": [
        {
          "internalType": "string",
          "name": "",
          "type": "string"
        }
      ],
      "stateMutability": "view",
      "type": "function"
    },
    {
      "inputs": [],
      "name": "owner",
      "outputs": [
        {
          "internalType": "address",
          "name": "",
          "type": "address"
        }
      ],
      "stateMutability": "view",
      "type": "function"
    },
    {
      "inputs": [
        {
          "internalType": "uint256",
          "name": "tokenId",
          "type": "uint256"
        }
      ],
      "name": "ownerOf",
      "outputs": [
        {
          "internalType": "address",
          "name": "",
          "type": "address"
        }
      ],
      "stateMutability": "view",
      "type": "function"
    },
    {
      "inputs": [],
      "name": "renounceOwnership",
      "outputs": [],
      "stateMutability": "nonpayable",
      "type": "function"
    },
    {
      "inputs": [
        {
          "internalType": "address",
          "name": "from",
          "type": "address"
        },
        {
          "internalType": "address",
          "name": "to",
          "type": "address"
        },
        {
          "internalType": "uint256",
          "name": "tokenId",
          "type": "uint256"
        }
      ],
      "name": "safeTransferFrom",
      "outputs": [],
      "stateMutability": "nonpayable",
      "type": "function"
    },
    {
      "inputs": [
        {
          "internalType": "address",
          "name": "from",
          "type": "address"
        },
        {
          "internalType": "address",
          "name": "to",
          "type": "address"
        },
        {
          "internalType": "uint256",
          "name": "tokenId",
          "type": "uint256"
        },
        {
          "internalType": "bytes",
          "name": "data",
          "type": "bytes"
        }
      ],
      "name": "safeTransferFrom",
      "outputs": [],
      "stateMutability": "nonpayable",
      "type": "function"
    },
    {
      "inputs": [
        {
          "internalType": "address",
          "name": "operator",
          "type": "address"
        },
        {
          "internalType": "bool",
          "name": "approved",
          "type": "bool"
        }
      ],
      "name": "setApprovalForAll",
      "outputs": [],
      "stateMutability": "nonpayable",
      "type": "function"
    },
    {
      "inputs": [
        {
          "internalType": "bytes4",
          "name": "interfaceId",
          "type": "bytes4"
        }
      ],
      "name": "supportsInterface",
      "outputs": [
        {
          "internalType": "bool",
          "name": "",
          "type": "bool"
        }
      ],
      "stateMutability": "view",
      "type": "function"
    },
    {
      "inputs": [],
      "name": "symbol",
      "outputs": [
        {
          "internalType": "string",
          "name": "",
          "type": "string"
        }
      ],
      "stateMutability": "view",
      "type": "function"
    },
    {
      "inputs": [
        {
          "internalType": "uint256",
          "name": "tokenId",
          "type": "uint256"
        }
      ],
      "name": "tokenURI",
      "outputs": [
        {
          "internalType": "string",
          "name": "",
          "type": "string"
        }
      ],
      "stateMutability": "view",
      "type": "function"
    },
    {
      "inputs": [
        {
          "internalType": "address",
          "name": "from",
          "type": "address"
        },
        {
          "internalType": "address",
          "name": "to",
          "type": "address"
        },
        {
          "internalType": "uint256",
          "name": "tokenId",
          "type": "uint256"
        }
      ],
      "name": "transferFrom",
      "outputs": [],
      "stateMutability": "nonpayable",
      "type": "function"
    },
    {
      "inputs": [
        {
          "internalType": "address",
          "name": "newOwner",
          "type": "address"
        }
      ],
      "name": "transferOwnership",
      "outputs": [],
      "stateMutability": "nonpayable",
      "type": "function"
    }
  ],
  "bytecode": "0x608060405234801562000010575f80fd5b50336040518060400160405280600581526020017f6d795257410000000000000000000000000000000000000000000000000000008152506040518060400160405280600381526020017f5257410000000000000000000000000000000000000000000000000000000000815250815f90816200008e919062000eba565b508060019081620000a0919062000eba565b5050505f73ffffffffffffffffffffffffffffffffffffffff168173ffffffffffffffffffffffffffffffffffffffff160362000116575f6040517f1e4fbdf70000000000000000000000000000000000000000000000000000000081526004016200010d919062000fe1565b60405180910390fd5b62000127816200014060201b60201c565b506200013a335f6200020360201b60201c565b620011c7565b5f60065f9054906101000a900473ffffffffffffffffffffffffffffffffffffffff1690508160065f6101000a81548173ffffffffffffffffffffffffffffffffffffffff021916908373ffffffffffffffffffffffffffffffffffffffff1602179055508173ffffffffffffffffffffffffffffffffffffffff168173ffffffffffffffffffffffffffffffffffffffff167f8be0079c531659141344cd1fd0a4f28419497f9722a3daafe3b4186f6b6457e060405160405180910390a35050565b62000224828260405180602001604052805f8152506200022860201b60201c565b5050565b6200023a83836200025360201b60201c565b6200024e5f8484846200035460201b60201c565b505050565b5f73ffffffffffffffffffffffffffffffffffffffff168273ffffffffffffffffffffffffffffffffffffffff1603620002c6575f6040517f64a0ae92000000000000000000000000000000000000000000000000000000008152600401620002bd919062000fe1565b60405180910390fd5b5f620002da83835f6200051d60201b60201c565b90505f73ffffffffffffffffffffffffffffffffffffffff168173ffffffffffffffffffffffffffffffffffffffff16146200034f575f6040517f73c6ac6e00000000000000000000000000000000000000000000000000000000815260040162000346919062000fe1565b60405180910390fd5b505050565b5f8373ffffffffffffffffffffffffffffffffffffffff163b111562000517578273ffffffffffffffffffffffffffffffffffffffff1663150b7a02620003a06200074360201b60201c565b8685856040518563ffffffff1660e01b8152600401620003c49493929190620010a1565b6020604051808303815f875af19250505080156200040257506040513d601f19601f82011682018060405250810190620003ff919062001151565b60015b62000489573d805f811462000433576040519150601f19603f3d011682016040523d82523d5f602084013e62000438565b606091505b505f8151036200048157836040517f64a0ae9200000000000000000000000000000000000000000000000000000000815260040162000478919062000fe1565b60405180910390fd5b805181602001fd5b63150b7a0260e01b7bffffffffffffffffffffffffffffffffffffffffffffffffffffffff1916817bffffffffffffffffffffffffffffffffffffffffffffffffffffffff1916146200051557836040517f64a0ae920000000000000000000000000000000000000000000000000000000081526004016200050c919062000fe1565b60405180910390fd5b505b50505050565b5f8062000530846200074a60201b60201c565b90505f73ffffffffffffffffffffffffffffffffffffffff168373ffffffffffffffffffffffffffffffffffffffff16146200057a57620005798184866200078360201b60201c565b5b5f73ffffffffffffffffffffffffffffffffffffffff168173ffffffffffffffffffffffffffffffffffffffff16146200060e57620005c25f855f806200085460201b60201c565b600160035f8373ffffffffffffffffffffffffffffffffffffffff1673ffffffffffffffffffffffffffffffffffffffff1681526020019081526020015f205f82825403925050819055505b5f73ffffffffffffffffffffffffffffffffffffffff168573ffffffffffffffffffffffffffffffffffffffff16146200068e57600160035f8773ffffffffffffffffffffffffffffffffffffffff1673ffffffffffffffffffffffffffffffffffffffff1681526020019081526020015f205f82825401925050819055505b8460025f8681526020019081526020015f205f6101000a81548173ffffffffffffffffffffffffffffffffffffffff021916908373ffffffffffffffffffffffffffffffffffffffff160217905550838573ffffffffffffffffffffffffffffffffffffffff168273ffffffffffffffffffffffffffffffffffffffff167fddf252ad1be2c89b69c2b068fc378daa952ba7f163c4a11628f55a4df523b3ef60405160405180910390a4809150509392505050565b5f33905090565b5f60025f8381526020019081526020015f205f9054906101000a900473ffffffffffffffffffffffffffffffffffffffff169050919050565b6200079683838362000a2b60201b60201c565b6200084f575f73ffffffffffffffffffffffffffffffffffffffff168373ffffffffffffffffffffffffffffffffffffffff16036200080e57806040517f7e27328900000000000000000000000000000000000000000000000000000000815260040162000805919062001181565b60405180910390fd5b81816040517f177e802f000000000000000000000000000000000000000000000000000000008152600401620008469291906200119c565b60405180910390fd5b505050565b80806200088d57505f73ffffffffffffffffffffffffffffffffffffffff168273ffffffffffffffffffffffffffffffffffffffff1614155b15620009d6575f620008a58462000afe60201b60201c565b90505f73ffffffffffffffffffffffffffffffffffffffff168373ffffffffffffffffffffffffffffffffffffffff16141580156200091057508273ffffffffffffffffffffffffffffffffffffffff168173ffffffffffffffffffffffffffffffffffffffff1614155b80156200092c57506200092a818462000b8f60201b60201c565b155b156200097157826040517fa9fbf51f00000000000000000000000000000000000000000000000000000000815260040162000968919062000fe1565b60405180910390fd5b8115620009d457838573ffffffffffffffffffffffffffffffffffffffff168273ffffffffffffffffffffffffffffffffffffffff167f8c5be1e5ebec7d5bd14f71427d1e84f3dd0314c0f7b2291e5b200ac8c7c3b92560405160405180910390a45b505b8360045f8581526020019081526020015f205f6101000a81548173ffffffffffffffffffffffffffffffffffffffff021916908373ffffffffffffffffffffffffffffffffffffffff16021790555050505050565b5f8073ffffffffffffffffffffffffffffffffffffffff168373ffffffffffffffffffffffffffffffffffffffff161415801562000af557508273ffffffffffffffffffffffffffffffffffffffff168473ffffffffffffffffffffffffffffffffffffffff16148062000aad575062000aac848462000b8f60201b60201c565b5b8062000af457508273ffffffffffffffffffffffffffffffffffffffff1662000adc8362000c1d60201b60201c565b73ffffffffffffffffffffffffffffffffffffffff16145b5b90509392505050565b5f8062000b11836200074a60201b60201c565b90505f73ffffffffffffffffffffffffffffffffffffffff168173ffffffffffffffffffffffffffffffffffffffff160362000b8657826040517f7e27328900000000000000000000000000000000000000000000000000000000815260040162000b7d919062001181565b60405180910390fd5b80915050919050565b5f60055f8473ffffffffffffffffffffffffffffffffffffffff1673ffffffffffffffffffffffffffffffffffffffff1681526020019081526020015f205f8373ffffffffffffffffffffffffffffffffffffffff1673ffffffffffffffffffffffffffffffffffffffff1681526020019081526020015f205f9054906101000a900460ff16905092915050565b5f60045f8381526020019081526020015f205f9054906101000a900473ffffffffffffffffffffffffffffffffffffffff169050919050565b5f81519050919050565b7f4e487b71000000000000000000000000000000000000000000000000000000005f52604160045260245ffd5b7f4e487b71000000000000000000000000000000000000000000000000000000005f52602260045260245ffd5b5f600282049050600182168062000cd257607f821691505b60208210810362000ce85762000ce762000c8d565b5b50919050565b5f819050815f5260205f209050919050565b5f6020601f8301049050919050565b5f82821b905092915050565b5f6008830262000d4c7fffffffffffffffffffffffffffffffffffffffffffffffffffffffffffffffff8262000d0f565b62000d58868362000d0f565b95508019841693508086168417925050509392505050565b5f819050919050565b5f819050919050565b5f62000da262000d9c62000d968462000d70565b62000d79565b62000d70565b9050919050565b5f819050919050565b62000dbd8362000d82565b62000dd562000dcc8262000da9565b84845462000d1b565b825550505050565b5f90565b62000deb62000ddd565b62000df881848462000db2565b505050565b5b8181101562000e1f5762000e135f8262000de1565b60018101905062000dfe565b5050565b601f82111562000e6e5762000e388162000cee565b62000e438462000d00565b8101602085101562000e53578190505b62000e6b62000e628562000d00565b83018262000dfd565b50505b505050565b5f82821c905092915050565b5f62000e905f198460080262000e73565b1980831691505092915050565b5f62000eaa838362000e7f565b9150826002028217905092915050565b62000ec58262000c56565b67ffffffffffffffff81111562000ee15762000ee062000c60565b5b62000eed825462000cba565b62000efa82828562000e23565b5f60209050601f83116001811462000f30575f841562000f1b578287015190505b62000f27858262000e9d565b86555062000f96565b601f19841662000f408662000cee565b5f5b8281101562000f695784890151825560018201915060208501945060208101905062000f42565b8683101562000f89578489015162000f85601f89168262000e7f565b8355505b6001600288020188555050505b505050505050565b5f73ffffffffffffffffffffffffffffffffffffffff82169050919050565b5f62000fc98262000f9e565b9050919050565b62000fdb8162000fbd565b82525050565b5f60208201905062000ff65f83018462000fd0565b92915050565b620010078162000d70565b82525050565b5f81519050919050565b5f82825260208201905092915050565b5f5b838110156200104657808201518184015260208101905062001029565b5f8484015250505050565b5f601f19601f8301169050919050565b5f6200106d826200100d565b62001079818562001017565b93506200108b81856020860162001027565b620010968162001051565b840191505092915050565b5f608082019050620010b65f83018762000fd0565b620010c5602083018662000fd0565b620010d4604083018562000ffc565b8181036060830152620010e8818462001061565b905095945050505050565b5f80fd5b5f7fffffffff0000000000000000000000000000000000000000000000000000000082169050919050565b6200112d81620010f7565b811462001138575f80fd5b50565b5f815190506200114b8162001122565b92915050565b5f60208284031215620011695762001168620010f3565b5b5f62001178848285016200113b565b91505092915050565b5f602082019050620011965f83018462000ffc565b92915050565b5f604082019050620011b15f83018562000fd0565b620011c0602083018462000ffc565b9392505050565b611e5c80620011d55f395ff3fe608060405234801561000f575f80fd5b50600436106100fe575f3560e01c8063715018a611610095578063b88d4fde11610064578063b88d4fde14610296578063c87b56dd146102b2578063e985e9c5146102e2578063f2fde38b14610312576100fe565b8063715018a6146102345780638da5cb5b1461023e57806395d89b411461025c578063a22cb4651461027a576100fe565b806323b872dd116100d157806323b872dd1461019c57806342842e0e146101b85780636352211e146101d457806370a0823114610204576100fe565b806301ffc9a71461010257806306fdde0314610132578063081812fc14610150578063095ea7b314610180575b5f80fd5b61011c600480360381019061011791906116ed565b61032e565b6040516101299190611732565b60405180910390f35b61013a61040f565b60405161014791906117d5565b60405180910390f35b61016a60048036038101906101659190611828565b61049e565b6040516101779190611892565b60405180910390f35b61019a600480360381019061019591906118d5565b6104b9565b005b6101b660048036038101906101b19190611913565b6104cf565b005b6101d260048036038101906101cd9190611913565b6105ce565b005b6101ee60048036038101906101e99190611828565b6105ed565b6040516101fb9190611892565b60405180910390f35b61021e60048036038101906102199190611963565b6105fe565b60405161022b919061199d565b60405180910390f35b61023c6106b4565b005b6102466106c7565b6040516102539190611892565b60405180910390f35b6102646106ef565b60405161027191906117d5565b60405180910390f35b610294600480360381019061028f91906119e0565b61077f565b005b6102b060048036038101906102ab9190611b4a565b610795565b005b6102cc60048036038101906102c79190611828565b6107b2565b6040516102d991906117d5565b60405180910390f35b6102fc60048036038101906102f79190611bca565b610818565b6040516103099190611732565b60405180910390f35b61032c60048036038101906103279190611963565b6108a6565b005b5f7f80ac58cd000000000000000000000000000000000000000000000000000000007bffffffffffffffffffffffffffffffffffffffffffffffffffffffff1916827bffffffffffffffffffffffffffffffffffffffffffffffffffffffff191614806103f857507f5b5e139f000000000000000000000000000000000000000000000000000000007bffffffffffffffffffffffffffffffffffffffffffffffffffffffff1916827bffffffffffffffffffffffffffffffffffffffffffffffffffffffff1916145b8061040857506104078261092a565b5b9050919050565b60605f805461041d90611c35565b80601f016020809104026020016040519081016040528092919081815260200182805461044990611c35565b80156104945780601f1061046b57610100808354040283529160200191610494565b820191905f5260205f20905b81548152906001019060200180831161047757829003601f168201915b5050505050905090565b5f6104a882610993565b506104b282610a19565b9050919050565b6104cb82826104c6610a52565b610a59565b5050565b5f73ffffffffffffffffffffffffffffffffffffffff168273ffffffffffffffffffffffffffffffffffffffff160361053f575f6040517f64a0ae920000000000000000000000000000000000000000000000000000000081526004016105369190611892565b60405180910390fd5b5f610552838361054d610a52565b610a6b565b90508373ffffffffffffffffffffffffffffffffffffffff168173ffffffffffffffffffffffffffffffffffffffff16146105c8578382826040517f64283d7b0000000000000000000000000000000000000000000000000000000081526004016105bf93929190611c65565b60405180910390fd5b50505050565b6105e883838360405180602001604052805f815250610795565b505050565b5f6105f782610993565b9050919050565b5f8073ffffffffffffffffffffffffffffffffffffffff168273ffffffffffffffffffffffffffffffffffffffff160361066f575f6040517f89c62b640000000000000000000000000000000000000000000000000000000081526004016106669190611892565b60405180910390fd5b60035f8373ffffffffffffffffffffffffffffffffffffffff1673ffffffffffffffffffffffffffffffffffffffff1681526020019081526020015f20549050919050565b6106bc610c76565b6106c55f610cfd565b565b5f60065f9054906101000a900473ffffffffffffffffffffffffffffffffffffffff16905090565b6060600180546106fe90611c35565b80601f016020809104026020016040519081016040528092919081815260200182805461072a90611c35565b80156107755780601f1061074c57610100808354040283529160200191610775565b820191905f5260205f20905b81548152906001019060200180831161075857829003601f168201915b5050505050905090565b61079161078a610a52565b8383610dc0565b5050565b6107a08484846104cf565b6107ac84848484610f29565b50505050565b60606107bd82610993565b505f6107c76110db565b90505f8151116107e55760405180602001604052805f815250610810565b806107ef846110f1565b604051602001610800929190611cd4565b6040516020818303038152906040525b915050919050565b5f60055f8473ffffffffffffffffffffffffffffffffffffffff1673ffffffffffffffffffffffffffffffffffffffff1681526020019081526020015f205f8373ffffffffffffffffffffffffffffffffffffffff1673ffffffffffffffffffffffffffffffffffffffff1681526020019081526020015f205f9054906101000a900460ff16905092915050565b6108ae610c76565b5f73ffffffffffffffffffffffffffffffffffffffff168173ffffffffffffffffffffffffffffffffffffffff160361091e575f6040517f1e4fbdf70000000000000000000000000000000000000000000000000000000081526004016109159190611892565b60405180910390fd5b61092781610cfd565b50565b5f7f01ffc9a7000000000000000000000000000000000000000000000000000000007bffffffffffffffffffffffffffffffffffffffffffffffffffffffff1916827bffffffffffffffffffffffffffffffffffffffffffffffffffffffff1916149050919050565b5f8061099e836111bb565b90505f73ffffffffffffffffffffffffffffffffffffffff168173ffffffffffffffffffffffffffffffffffffffff1603610a1057826040517f7e273289000000000000000000000000000000000000000000000000000000008152600401610a07919061199d565b60405180910390fd5b80915050919050565b5f60045f8381526020019081526020015f205f9054906101000a900473ffffffffffffffffffffffffffffffffffffffff169050919050565b5f33905090565b610a6683838360016111f4565b505050565b5f80610a76846111bb565b90505f73ffffffffffffffffffffffffffffffffffffffff168373ffffffffffffffffffffffffffffffffffffffff1614610ab757610ab68184866113b3565b5b5f73ffffffffffffffffffffffffffffffffffffffff168173ffffffffffffffffffffffffffffffffffffffff1614610b4257610af65f855f806111f4565b600160035f8373ffffffffffffffffffffffffffffffffffffffff1673ffffffffffffffffffffffffffffffffffffffff1681526020019081526020015f205f82825403925050819055505b5f73ffffffffffffffffffffffffffffffffffffffff168573ffffffffffffffffffffffffffffffffffffffff1614610bc157600160035f8773ffffffffffffffffffffffffffffffffffffffff1673ffffffffffffffffffffffffffffffffffffffff1681526020019081526020015f205f82825401925050819055505b8460025f8681526020019081526020015f205f6101000a81548173ffffffffffffffffffffffffffffffffffffffff021916908373ffffffffffffffffffffffffffffffffffffffff160217905550838573ffffffffffffffffffffffffffffffffffffffff168273ffffffffffffffffffffffffffffffffffffffff167fddf252ad1be2c89b69c2b068fc378daa952ba7f163c4a11628f55a4df523b3ef60405160405180910390a4809150509392505050565b610c7e610a52565b73ffffffffffffffffffffffffffffffffffffffff16610c9c6106c7565b73ffffffffffffffffffffffffffffffffffffffff1614610cfb57610cbf610a52565b6040517f118cdaa7000000000000000000000000000000000000000000000000000000008152600401610cf29190611892565b60405180910390fd5b565b5f60065f9054906101000a900473ffffffffffffffffffffffffffffffffffffffff1690508160065f6101000a81548173ffffffffffffffffffffffffffffffffffffffff021916908373ffffffffffffffffffffffffffffffffffffffff1602179055508173ffffffffffffffffffffffffffffffffffffffff168173ffffffffffffffffffffffffffffffffffffffff167f8be0079c531659141344cd1fd0a4f28419497f9722a3daafe3b4186f6b6457e060405160405180910390a35050565b5f73ffffffffffffffffffffffffffffffffffffffff168273ffffffffffffffffffffffffffffffffffffffff1603610e3057816040517f5b08ba18000000000000000000000000000000000000000000000000000000008152600401610e279190611892565b60405180910390fd5b8060055f8573ffffffffffffffffffffffffffffffffffffffff1673ffffffffffffffffffffffffffffffffffffffff1681526020019081526020015f205f8473ffffffffffffffffffffffffffffffffffffffff1673ffffffffffffffffffffffffffffffffffffffff1681526020019081526020015f205f6101000a81548160ff0219169083151502179055508173ffffffffffffffffffffffffffffffffffffffff168373ffffffffffffffffffffffffffffffffffffffff167f17307eab39ab6107e8899845ad3d59bd9653f200f220920489ca2b5937696c3183604051610f1c9190611732565b60405180910390a3505050565b5f8373ffffffffffffffffffffffffffffffffffffffff163b11156110d5578273ffffffffffffffffffffffffffffffffffffffff1663150b7a02610f6c610a52565b8685856040518563ffffffff1660e01b8152600401610f8e9493929190611d49565b6020604051808303815f875af1925050508015610fc957506040513d601f19601f82011682018060405250810190610fc69190611da7565b60015b61104a573d805f8114610ff7576040519150601f19603f3d011682016040523d82523d5f602084013e610ffc565b606091505b505f81510361104257836040517f64a0ae920000000000000000000000000000000000000000000000000000000081526004016110399190611892565b60405180910390fd5b805181602001fd5b63150b7a0260e01b7bffffffffffffffffffffffffffffffffffffffffffffffffffffffff1916817bffffffffffffffffffffffffffffffffffffffffffffffffffffffff1916146110d357836040517f64a0ae920000000000000000000000000000000000000000000000000000000081526004016110ca9190611892565b60405180910390fd5b505b50505050565b606060405180602001604052805f815250905090565b60605f60016110ff84611476565b0190505f8167ffffffffffffffff81111561111d5761111c611a26565b5b6040519080825280601f01601f19166020018201604052801561114f5781602001600182028036833780820191505090505b5090505f82602001820190505b6001156111b0578080600190039150507f3031323334353637383961626364656600000000000000000000000000000000600a86061a8153600a85816111a5576111a4611dd2565b5b0494505f850361115c575b819350505050919050565b5f60025f8381526020019081526020015f205f9054906101000a900473ffffffffffffffffffffffffffffffffffffffff169050919050565b808061122c57505f73ffffffffffffffffffffffffffffffffffffffff168273ffffffffffffffffffffffffffffffffffffffff1614155b1561135e575f61123b84610993565b90505f73ffffffffffffffffffffffffffffffffffffffff168373ffffffffffffffffffffffffffffffffffffffff16141580156112a557508273ffffffffffffffffffffffffffffffffffffffff168173ffffffffffffffffffffffffffffffffffffffff1614155b80156112b857506112b68184610818565b155b156112fa57826040517fa9fbf51f0000000000000000000000000000000000000000000000000000000081526004016112f19190611892565b60405180910390fd5b811561135c57838573ffffffffffffffffffffffffffffffffffffffff168273ffffffffffffffffffffffffffffffffffffffff167f8c5be1e5ebec7d5bd14f71427d1e84f3dd0314c0f7b2291e5b200ac8c7c3b92560405160405180910390a45b505b8360045f8581526020019081526020015f205f6101000a81548173ffffffffffffffffffffffffffffffffffffffff021916908373ffffffffffffffffffffffffffffffffffffffff16021790555050505050565b6113be8383836115c7565b611471575f73ffffffffffffffffffffffffffffffffffffffff168373ffffffffffffffffffffffffffffffffffffffff160361143257806040517f7e273289000000000000000000000000000000000000000000000000000000008152600401611429919061199d565b60405180910390fd5b81816040517f177e802f000000000000000000000000000000000000000000000000000000008152600401611468929190611dff565b60405180910390fd5b505050565b5f805f90507a184f03e93ff9f4daa797ed6e38ed64bf6a1f01000000000000000083106114d2577a184f03e93ff9f4daa797ed6e38ed64bf6a1f01000000000000000083816114c8576114c7611dd2565b5b0492506040810190505b6d04ee2d6d415b85acef8100000000831061150f576d04ee2d6d415b85acef8100000000838161150557611504611dd2565b5b0492506020810190505b662386f26fc10000831061153e57662386f26fc10000838161153457611533611dd2565b5b0492506010810190505b6305f5e1008310611567576305f5e100838161155d5761155c611dd2565b5b0492506008810190505b612710831061158c57612710838161158257611581611dd2565b5b0492506004810190505b606483106115af57606483816115a5576115a4611dd2565b5b0492506002810190505b600a83106115be576001810190505b80915050919050565b5f8073ffffffffffffffffffffffffffffffffffffffff168373ffffffffffffffffffffffffffffffffffffffff161415801561167e57508273ffffffffffffffffffffffffffffffffffffffff168473ffffffffffffffffffffffffffffffffffffffff16148061163f575061163e8484610818565b5b8061167d57508273ffffffffffffffffffffffffffffffffffffffff1661166583610a19565b73ffffffffffffffffffffffffffffffffffffffff16145b5b90509392505050565b5f604051905090565b5f80fd5b5f80fd5b5f7fffffffff0000000000000000000000000000000000000000000000000000000082169050919050565b6116cc81611698565b81146116d6575f80fd5b50565b5f813590506116e7816116c3565b92915050565b5f6020828403121561170257611701611690565b5b5f61170f848285016116d9565b91505092915050565b5f8115159050919050565b61172c81611718565b82525050565b5f6020820190506117455f830184611723565b92915050565b5f81519050919050565b5f82825260208201905092915050565b5f5b83811015611782578082015181840152602081019050611767565b5f8484015250505050565b5f601f19601f8301169050919050565b5f6117a78261174b565b6117b18185611755565b93506117c1818560208601611765565b6117ca8161178d565b840191505092915050565b5f6020820190508181035f8301526117ed818461179d565b905092915050565b5f819050919050565b611807816117f5565b8114611811575f80fd5b50565b5f81359050611822816117fe565b92915050565b5f6020828403121561183d5761183c611690565b5b5f61184a84828501611814565b91505092915050565b5f73ffffffffffffffffffffffffffffffffffffffff82169050919050565b5f61187c82611853565b9050919050565b61188c81611872565b82525050565b5f6020820190506118a55f830184611883565b92915050565b6118b481611872565b81146118be575f80fd5b50565b5f813590506118cf816118ab565b92915050565b5f80604083850312156118eb576118ea611690565b5b5f6118f8858286016118c1565b925050602061190985828601611814565b9150509250929050565b5f805f6060848603121561192a57611929611690565b5b5f611937868287016118c1565b9350506020611948868287016118c1565b925050604061195986828701611814565b9150509250925092565b5f6020828403121561197857611977611690565b5b5f611985848285016118c1565b91505092915050565b611997816117f5565b82525050565b5f6020820190506119b05f83018461198e565b92915050565b6119bf81611718565b81146119c9575f80fd5b50565b5f813590506119da816119b6565b92915050565b5f80604083850312156119f6576119f5611690565b5b5f611a03858286016118c1565b9250506020611a14858286016119cc565b9150509250929050565b5f80fd5b5f80fd5b7f4e487b71000000000000000000000000000000000000000000000000000000005f52604160045260245ffd5b611a5c8261178d565b810181811067ffffffffffffffff82111715611a7b57611a7a611a26565b5b80604052505050565b5f611a8d611687565b9050611a998282611a53565b919050565b5f67ffffffffffffffff821115611ab857611ab7611a26565b5b611ac18261178d565b9050602081019050919050565b828183375f83830152505050565b5f611aee611ae984611a9e565b611a84565b905082815260208101848484011115611b0a57611b09611a22565b5b611b15848285611ace565b509392505050565b5f82601f830112611b3157611b30611a1e565b5b8135611b41848260208601611adc565b91505092915050565b5f805f8060808587031215611b6257611b61611690565b5b5f611b6f878288016118c1565b9450506020611b80878288016118c1565b9350506040611b9187828801611814565b925050606085013567ffffffffffffffff811115611bb257611bb1611694565b5b611bbe87828801611b1d565b91505092959194509250565b5f8060408385031215611be057611bdf611690565b5b5f611bed858286016118c1565b9250506020611bfe858286016118c1565b9150509250929050565b7f4e487b71000000000000000000000000000000000000000000000000000000005f52602260045260245ffd5b5f6002820490506001821680611c4c57607f821691505b602082108103611c5f57611c5e611c08565b5b50919050565b5f606082019050611c785f830186611883565b611c85602083018561198e565b611c926040830184611883565b949350505050565b5f81905092915050565b5f611cae8261174b565b611cb88185611c9a565b9350611cc8818560208601611765565b80840191505092915050565b5f611cdf8285611ca4565b9150611ceb8284611ca4565b91508190509392505050565b5f81519050919050565b5f82825260208201905092915050565b5f611d1b82611cf7565b611d258185611d01565b9350611d35818560208601611765565b611d3e8161178d565b840191505092915050565b5f608082019050611d5c5f830187611883565b611d696020830186611883565b611d76604083018561198e565b8181036060830152611d888184611d11565b905095945050505050565b5f81519050611da1816116c3565b92915050565b5f60208284031215611dbc57611dbb611690565b5b5f611dc984828501611d93565b91505092915050565b7f4e487b71000000000000000000000000000000000000000000000000000000005f52601260045260245ffd5b5f604082019050611e125f830185611883565b611e1f602083018461198e565b939250505056fea2646970667358221220d5caba2b403076a2003c962a0d7814a223d8a1f16eaa206e80fd1197c08ce45364736f6c63430008150033",
  "immutableReferences": {},
  "source": "// SPDX-License-Identifier: MIT\npragma solidity ^0.8.20;\n\nimport \"@openzeppelin/contracts/token/ERC721/ERC721.sol\";\nimport \"@openzeppelin/contracts/access/Ownable.sol\";\n\ncontract MyRWA is ERC721, Ownable {\n    constructor()\n        ERC721(\"myRWA\", \"RWA\")\n        Ownable(msg.sender)\n    {}\n}",
  "sourcePath": "/Users/kalpitamandal/work/ETHIndia23/TotalRecall/contracts/RWA.sol",
  "compiler": {
    "name": "solc",
    "version": "0.8.21+commit.d9974bed.Emscripten.clang"
  },
  "schemaVersion": "3.4.16",
  "updatedAt": "2023-12-09T13:50:28.499Z",
  "devdoc": {
    "errors": {
      "ERC721IncorrectOwner(address,uint256,address)": [
        {
          "details": "Indicates an error related to the ownership over a particular token. Used in transfers.",
          "params": {
            "owner": "Address of the current owner of a token.",
            "sender": "Address whose tokens are being transferred.",
            "tokenId": "Identifier number of a token."
          }
        }
      ],
      "ERC721InsufficientApproval(address,uint256)": [
        {
          "details": "Indicates a failure with the `operator`s approval. Used in transfers.",
          "params": {
            "operator": "Address that may be allowed to operate on tokens without being their owner.",
            "tokenId": "Identifier number of a token."
          }
        }
      ],
      "ERC721InvalidApprover(address)": [
        {
          "details": "Indicates a failure with the `approver` of a token to be approved. Used in approvals.",
          "params": {
            "approver": "Address initiating an approval operation."
          }
        }
      ],
      "ERC721InvalidOperator(address)": [
        {
          "details": "Indicates a failure with the `operator` to be approved. Used in approvals.",
          "params": {
            "operator": "Address that may be allowed to operate on tokens without being their owner."
          }
        }
      ],
      "ERC721InvalidOwner(address)": [
        {
          "details": "Indicates that an address can't be an owner. For example, `address(0)` is a forbidden owner in EIP-20. Used in balance queries.",
          "params": {
            "owner": "Address of the current owner of a token."
          }
        }
      ],
      "ERC721InvalidReceiver(address)": [
        {
          "details": "Indicates a failure with the token `receiver`. Used in transfers.",
          "params": {
            "receiver": "Address to which tokens are being transferred."
          }
        }
      ],
      "ERC721InvalidSender(address)": [
        {
          "details": "Indicates a failure with the token `sender`. Used in transfers.",
          "params": {
            "sender": "Address whose tokens are being transferred."
          }
        }
      ],
      "ERC721NonexistentToken(uint256)": [
        {
          "details": "Indicates a `tokenId` whose `owner` is the zero address.",
          "params": {
            "tokenId": "Identifier number of a token."
          }
        }
      ],
      "OwnableInvalidOwner(address)": [
        {
          "details": "The owner is not a valid owner account. (eg. `address(0)`)"
        }
      ],
      "OwnableUnauthorizedAccount(address)": [
        {
          "details": "The caller account is not authorized to perform an operation."
        }
      ]
    },
    "events": {
      "Approval(address,address,uint256)": {
        "details": "Emitted when `owner` enables `approved` to manage the `tokenId` token."
      },
      "ApprovalForAll(address,address,bool)": {
        "details": "Emitted when `owner` enables or disables (`approved`) `operator` to manage all of its assets."
      },
      "Transfer(address,address,uint256)": {
        "details": "Emitted when `tokenId` token is transferred from `from` to `to`."
      }
    },
    "kind": "dev",
    "methods": {
      "approve(address,uint256)": {
        "details": "See {IERC721-approve}."
      },
      "balanceOf(address)": {
        "details": "See {IERC721-balanceOf}."
      },
      "getApproved(uint256)": {
        "details": "See {IERC721-getApproved}."
      },
      "isApprovedForAll(address,address)": {
        "details": "See {IERC721-isApprovedForAll}."
      },
      "name()": {
        "details": "See {IERC721Metadata-name}."
      },
      "owner()": {
        "details": "Returns the address of the current owner."
      },
      "ownerOf(uint256)": {
        "details": "See {IERC721-ownerOf}."
      },
      "renounceOwnership()": {
        "details": "Leaves the contract without owner. It will not be possible to call `onlyOwner` functions. Can only be called by the current owner. NOTE: Renouncing ownership will leave the contract without an owner, thereby disabling any functionality that is only available to the owner."
      },
      "safeTransferFrom(address,address,uint256)": {
        "details": "See {IERC721-safeTransferFrom}."
      },
      "safeTransferFrom(address,address,uint256,bytes)": {
        "details": "See {IERC721-safeTransferFrom}."
      },
      "setApprovalForAll(address,bool)": {
        "details": "See {IERC721-setApprovalForAll}."
      },
      "supportsInterface(bytes4)": {
        "details": "See {IERC165-supportsInterface}."
      },
      "symbol()": {
        "details": "See {IERC721Metadata-symbol}."
      },
      "tokenURI(uint256)": {
        "details": "See {IERC721Metadata-tokenURI}."
      },
      "transferFrom(address,address,uint256)": {
        "details": "See {IERC721-transferFrom}."
      },
      "transferOwnership(address)": {
        "details": "Transfers ownership of the contract to a new account (`newOwner`). Can only be called by the current owner."
      }
    },
    "version": 1
  },
  "userdoc": {
    "kind": "user",
    "methods": {},
    "version": 1
  }
}