{
  "contractName": "RWAToken",
  "abi": [
    {
      "inputs": [
        {
          "internalType": "address",
          "name": "_owner",
          "type": "address"
        },
        {
          "internalType": "uint256",
          "name": "_amount",
          "type": "uint256"
        }
      ],
      "stateMutability": "nonpayable",
      "type": "constructor"
    },
    {
      "inputs": [
        {
          "internalType": "address",
          "name": "spender",
          "type": "address"
        },
        {
          "internalType": "uint256",
          "name": "allowance",
          "type": "uint256"
        },
        {
          "internalType": "uint256",
          "name": "needed",
          "type": "uint256"
        }
      ],
      "name": "ERC20InsufficientAllowance",
      "type": "error"
    },
    {
      "inputs": [
        {
          "internalType": "address",
          "name": "sender",
          "type": "address"
        },
        {
          "internalType": "uint256",
          "name": "balance",
          "type": "uint256"
        },
        {
          "internalType": "uint256",
          "name": "needed",
          "type": "uint256"
        }
      ],
      "name": "ERC20InsufficientBalance",
      "type": "error"
    },
    {
      "inputs": [
        {
          "internalType": "address",
          "name": "approver",
          "type": "address"
        }
      ],
      "name": "ERC20InvalidApprover",
      "type": "error"
    },
    {
      "inputs": [
        {
          "internalType": "address",
          "name": "receiver",
          "type": "address"
        }
      ],
      "name": "ERC20InvalidReceiver",
      "type": "error"
    },
    {
      "inputs": [
        {
          "internalType": "address",
          "name": "sender",
          "type": "address"
        }
      ],
      "name": "ERC20InvalidSender",
      "type": "error"
    },
    {
      "inputs": [
        {
          "internalType": "address",
          "name": "spender",
          "type": "address"
        }
      ],
      "name": "ERC20InvalidSpender",
      "type": "error"
    },
    {
      "inputs": [
        {
          "internalType": "address",
          "name": "owner",
          "type": "address"
        }
      ],
      "name": "OwnableInvalidOwner",
      "type": "error"
    },
    {
      "inputs": [
        {
          "internalType": "address",
          "name": "account",
          "type": "address"
        }
      ],
      "name": "OwnableUnauthorizedAccount",
      "type": "error"
    },
    {
      "anonymous": false,
      "inputs": [
        {
          "indexed": true,
          "internalType": "address",
          "name": "owner",
          "type": "address"
        },
        {
          "indexed": true,
          "internalType": "address",
          "name": "spender",
          "type": "address"
        },
        {
          "indexed": false,
          "internalType": "uint256",
          "name": "value",
          "type": "uint256"
        }
      ],
      "name": "Approval",
      "type": "event"
    },
    {
      "anonymous": false,
      "inputs": [
        {
          "indexed": true,
          "internalType": "address",
          "name": "previousOwner",
          "type": "address"
        },
        {
          "indexed": true,
          "internalType": "address",
          "name": "newOwner",
          "type": "address"
        }
      ],
      "name": "OwnershipTransferred",
      "type": "event"
    },
    {
      "anonymous": false,
      "inputs": [
        {
          "indexed": true,
          "internalType": "address",
          "name": "from",
          "type": "address"
        },
        {
          "indexed": true,
          "internalType": "address",
          "name": "to",
          "type": "address"
        },
        {
          "indexed": false,
          "internalType": "uint256",
          "name": "value",
          "type": "uint256"
        }
      ],
      "name": "Transfer",
      "type": "event"
    },
    {
      "inputs": [
        {
          "internalType": "address",
          "name": "owner",
          "type": "address"
        },
        {
          "internalType": "address",
          "name": "spender",
          "type": "address"
        }
      ],
      "name": "allowance",
      "outputs": [
        {
          "internalType": "uint256",
          "name": "",
          "type": "uint256"
        }
      ],
      "stateMutability": "view",
      "type": "function"
    },
    {
      "inputs": [
        {
          "internalType": "address",
          "name": "spender",
          "type": "address"
        },
        {
          "internalType": "uint256",
          "name": "value",
          "type": "uint256"
        }
      ],
      "name": "approve",
      "outputs": [
        {
          "internalType": "bool",
          "name": "",
          "type": "bool"
        }
      ],
      "stateMutability": "nonpayable",
      "type": "function"
    },
    {
      "inputs": [
        {
          "internalType": "address",
          "name": "account",
          "type": "address"
        }
      ],
      "name": "balanceOf",
      "outputs": [
        {
          "internalType": "uint256",
          "name": "",
          "type": "uint256"
        }
      ],
      "stateMutability": "view",
      "type": "function"
    },
    {
      "inputs": [
        {
          "internalType": "uint256",
          "name": "value",
          "type": "uint256"
        }
      ],
      "name": "burn",
      "outputs": [],
      "stateMutability": "nonpayable",
      "type": "function"
    },
    {
      "inputs": [
        {
          "internalType": "address",
          "name": "account",
          "type": "address"
        },
        {
          "internalType": "uint256",
          "name": "value",
          "type": "uint256"
        }
      ],
      "name": "burnFrom",
      "outputs": [],
      "stateMutability": "nonpayable",
      "type": "function"
    },
    {
      "inputs": [],
      "name": "decimals",
      "outputs": [
        {
          "internalType": "uint8",
          "name": "",
          "type": "uint8"
        }
      ],
      "stateMutability": "view",
      "type": "function"
    },
    {
      "inputs": [
        {
          "internalType": "uint256",
          "name": "",
          "type": "uint256"
        }
      ],
      "name": "holders",
      "outputs": [
        {
          "internalType": "address",
          "name": "",
          "type": "address"
        }
      ],
      "stateMutability": "view",
      "type": "function"
    },
    {
      "inputs": [],
      "name": "name",
      "outputs": [
        {
          "internalType": "string",
          "name": "",
          "type": "string"
        }
      ],
      "stateMutability": "view",
      "type": "function"
    },
    {
      "inputs": [],
      "name": "owner",
      "outputs": [
        {
          "internalType": "address",
          "name": "",
          "type": "address"
        }
      ],
      "stateMutability": "view",
      "type": "function"
    },
    {
      "inputs": [],
      "name": "renounceOwnership",
      "outputs": [],
      "stateMutability": "nonpayable",
      "type": "function"
    },
    {
      "inputs": [],
      "name": "symbol",
      "outputs": [
        {
          "internalType": "string",
          "name": "",
          "type": "string"
        }
      ],
      "stateMutability": "view",
      "type": "function"
    },
    {
      "inputs": [],
      "name": "totalSupply",
      "outputs": [
        {
          "internalType": "uint256",
          "name": "",
          "type": "uint256"
        }
      ],
      "stateMutability": "view",
      "type": "function"
    },
    {
      "inputs": [
        {
          "internalType": "address",
          "name": "newOwner",
          "type": "address"
        }
      ],
      "name": "transferOwnership",
      "outputs": [],
      "stateMutability": "nonpayable",
      "type": "function"
    },
    {
      "inputs": [],
      "name": "burnAllTokens",
      "outputs": [],
      "stateMutability": "nonpayable",
      "type": "function"
    },
    {
      "inputs": [],
      "name": "getAllHolders",
      "outputs": [
        {
          "internalType": "address[]",
          "name": "",
          "type": "address[]"
        }
      ],
      "stateMutability": "view",
      "type": "function"
    },
    {
      "inputs": [
        {
          "internalType": "address",
          "name": "to",
          "type": "address"
        },
        {
          "internalType": "uint256",
          "name": "value",
          "type": "uint256"
        }
      ],
      "name": "transfer",
      "outputs": [
        {
          "internalType": "bool",
          "name": "",
          "type": "bool"
        }
      ],
      "stateMutability": "nonpayable",
      "type": "function"
    },
    {
      "inputs": [
        {
          "internalType": "address",
          "name": "from",
          "type": "address"
        },
        {
          "internalType": "address",
          "name": "to",
          "type": "address"
        },
        {
          "internalType": "uint256",
          "name": "value",
          "type": "uint256"
        }
      ],
      "name": "transferFrom",
      "outputs": [
        {
          "internalType": "bool",
          "name": "",
          "type": "bool"
        }
      ],
      "stateMutability": "nonpayable",
      "type": "function"
    }
  ],
  "bytecode": "0x608060405234801562000010575f80fd5b506040516200244938038062002449833981810160405281019062000036919062000576565b816040518060400160405280600881526020017f525741546f6b656e0000000000000000000000000000000000000000000000008152506040518060400160405280600481526020017f52544b4e000000000000000000000000000000000000000000000000000000008152508160039081620000b4919062000816565b508060049081620000c6919062000816565b5050505f73ffffffffffffffffffffffffffffffffffffffff168173ffffffffffffffffffffffffffffffffffffffff16036200013c575f6040517f1e4fbdf70000000000000000000000000000000000000000000000000000000081526004016200013391906200090b565b60405180910390fd5b6200014d816200016860201b60201c565b506200016082826200022b60201b60201c565b5050620009f4565b5f60055f9054906101000a900473ffffffffffffffffffffffffffffffffffffffff1690508160055f6101000a81548173ffffffffffffffffffffffffffffffffffffffff021916908373ffffffffffffffffffffffffffffffffffffffff1602179055508173ffffffffffffffffffffffffffffffffffffffff168173ffffffffffffffffffffffffffffffffffffffff167f8be0079c531659141344cd1fd0a4f28419497f9722a3daafe3b4186f6b6457e060405160405180910390a35050565b5f73ffffffffffffffffffffffffffffffffffffffff168273ffffffffffffffffffffffffffffffffffffffff16036200029e575f6040517fec442f050000000000000000000000000000000000000000000000000000000081526004016200029591906200090b565b60405180910390fd5b620002b15f8383620002b560201b60201c565b5050565b5f73ffffffffffffffffffffffffffffffffffffffff168373ffffffffffffffffffffffffffffffffffffffff160362000309578060025f828254620002fc919062000953565b92505081905550620003da565b5f805f8573ffffffffffffffffffffffffffffffffffffffff1673ffffffffffffffffffffffffffffffffffffffff1681526020019081526020015f205490508181101562000395578381836040517fe450d38c0000000000000000000000000000000000000000000000000000000081526004016200038c939291906200099e565b60405180910390fd5b8181035f808673ffffffffffffffffffffffffffffffffffffffff1673ffffffffffffffffffffffffffffffffffffffff1681526020019081526020015f2081905550505b5f73ffffffffffffffffffffffffffffffffffffffff168273ffffffffffffffffffffffffffffffffffffffff160362000423578060025f82825403925050819055506200046d565b805f808473ffffffffffffffffffffffffffffffffffffffff1673ffffffffffffffffffffffffffffffffffffffff1681526020019081526020015f205f82825401925050819055505b8173ffffffffffffffffffffffffffffffffffffffff168373ffffffffffffffffffffffffffffffffffffffff167fddf252ad1be2c89b69c2b068fc378daa952ba7f163c4a11628f55a4df523b3ef83604051620004cc9190620009d9565b60405180910390a3505050565b5f80fd5b5f73ffffffffffffffffffffffffffffffffffffffff82169050919050565b5f6200050882620004dd565b9050919050565b6200051a81620004fc565b811462000525575f80fd5b50565b5f8151905062000538816200050f565b92915050565b5f819050919050565b62000552816200053e565b81146200055d575f80fd5b50565b5f81519050620005708162000547565b92915050565b5f80604083850312156200058f576200058e620004d9565b5b5f6200059e8582860162000528565b9250506020620005b18582860162000560565b9150509250929050565b5f81519050919050565b7f4e487b71000000000000000000000000000000000000000000000000000000005f52604160045260245ffd5b7f4e487b71000000000000000000000000000000000000000000000000000000005f52602260045260245ffd5b5f60028204905060018216806200063757607f821691505b6020821081036200064d576200064c620005f2565b5b50919050565b5f819050815f5260205f209050919050565b5f6020601f8301049050919050565b5f82821b905092915050565b5f60088302620006b17fffffffffffffffffffffffffffffffffffffffffffffffffffffffffffffffff8262000674565b620006bd868362000674565b95508019841693508086168417925050509392505050565b5f819050919050565b5f620006fe620006f8620006f2846200053e565b620006d5565b6200053e565b9050919050565b5f819050919050565b6200071983620006de565b62000731620007288262000705565b84845462000680565b825550505050565b5f90565b6200074762000739565b620007548184846200070e565b505050565b5b818110156200077b576200076f5f826200073d565b6001810190506200075a565b5050565b601f821115620007ca57620007948162000653565b6200079f8462000665565b81016020851015620007af578190505b620007c7620007be8562000665565b83018262000759565b50505b505050565b5f82821c905092915050565b5f620007ec5f1984600802620007cf565b1980831691505092915050565b5f620008068383620007db565b9150826002028217905092915050565b6200082182620005bb565b67ffffffffffffffff8111156200083d576200083c620005c5565b5b6200084982546200061f565b620008568282856200077f565b5f60209050601f8311600181146200088c575f841562000877578287015190505b620008838582620007f9565b865550620008f2565b601f1984166200089c8662000653565b5f5b82811015620008c5578489015182556001820191506020850194506020810190506200089e565b86831015620008e55784890151620008e1601f891682620007db565b8355505b6001600288020188555050505b505050505050565b6200090581620004fc565b82525050565b5f602082019050620009205f830184620008fa565b92915050565b7f4e487b71000000000000000000000000000000000000000000000000000000005f52601160045260245ffd5b5f6200095f826200053e565b91506200096c836200053e565b925082820190508082111562000987576200098662000926565b5b92915050565b62000998816200053e565b82525050565b5f606082019050620009b35f830186620008fa565b620009c260208301856200098d565b620009d160408301846200098d565b949350505050565b5f602082019050620009ee5f8301846200098d565b92915050565b611a478062000a025f395ff3fe608060405234801561000f575f80fd5b5060043610610109575f3560e01c806370a08231116100a057806395d89b411161006f57806395d89b41146102a5578063a9059cbb146102c3578063c17e2aa1146102f3578063dd62ed3e146102fd578063f2fde38b1461032d57610109565b806370a0823114610231578063715018a61461026157806379cc67901461026b5780638da5cb5b1461028757610109565b806323b872dd116100dc57806323b872dd146101975780632a11ced0146101c7578063313ce567146101f757806342966c681461021557610109565b806306fdde031461010d578063095ea7b31461012b57806318160ddd1461015b5780631d92f25e14610179575b5f80fd5b610115610349565b60405161012291906114ea565b60405180910390f35b6101456004803603810190610140919061159b565b6103d9565b60405161015291906115f3565b60405180910390f35b6101636103fb565b604051610170919061161b565b60405180910390f35b610181610404565b60405161018e91906116eb565b60405180910390f35b6101b160048036038101906101ac919061170b565b61048f565b6040516101be91906115f3565b60405180910390f35b6101e160048036038101906101dc919061175b565b61074f565b6040516101ee9190611795565b60405180910390f35b6101ff61078a565b60405161020c91906117c9565b60405180910390f35b61022f600480360381019061022a919061175b565b610792565b005b61024b600480360381019061024691906117e2565b6107a6565b604051610258919061161b565b60405180910390f35b6102696107eb565b005b6102856004803603810190610280919061159b565b6107fe565b005b61028f61081e565b60405161029c9190611795565b60405180910390f35b6102ad610846565b6040516102ba91906114ea565b60405180910390f35b6102dd60048036038101906102d8919061159b565b6108d6565b6040516102ea91906115f3565b60405180910390f35b6102fb610b8a565b005b6103176004803603810190610312919061180d565b610c0e565b604051610324919061161b565b60405180910390f35b610347600480360381019061034291906117e2565b610c90565b005b60606003805461035890611878565b80601f016020809104026020016040519081016040528092919081815260200182805461038490611878565b80156103cf5780601f106103a6576101008083540402835291602001916103cf565b820191905f5260205f20905b8154815290600101906020018083116103b257829003601f168201915b5050505050905090565b5f806103e3610d14565b90506103f0818585610d1b565b600191505092915050565b5f600254905090565b6060600680548060200260200160405190810160405280929190818152602001828054801561048557602002820191905f5260205f20905b815f9054906101000a900473ffffffffffffffffffffffffffffffffffffffff1673ffffffffffffffffffffffffffffffffffffffff168152602001906001019080831161043c575b5050505050905090565b5f80610499610d14565b90506104a6858285610d2d565b6104b1858585610dbf565b5f805b60068054905081101561054b578573ffffffffffffffffffffffffffffffffffffffff16600682815481106104ec576104eb6118a8565b5b905f5260205f20015f9054906101000a900473ffffffffffffffffffffffffffffffffffffffff1673ffffffffffffffffffffffffffffffffffffffff1603610538576001915061054b565b808061054390611902565b9150506104b4565b50806105b257600685908060018154018082558091505060019003905f5260205f20015f9091909190916101000a81548173ffffffffffffffffffffffffffffffffffffffff021916908373ffffffffffffffffffffffffffffffffffffffff1602179055505b5f6105bc836107a6565b03610742575f5b600680549050811015610740578273ffffffffffffffffffffffffffffffffffffffff16600682815481106105fb576105fa6118a8565b5b905f5260205f20015f9054906101000a900473ffffffffffffffffffffffffffffffffffffffff1673ffffffffffffffffffffffffffffffffffffffff160361072d57600660016006805490506106529190611949565b81548110610663576106626118a8565b5b905f5260205f20015f9054906101000a900473ffffffffffffffffffffffffffffffffffffffff166006828154811061069f5761069e6118a8565b5b905f5260205f20015f6101000a81548173ffffffffffffffffffffffffffffffffffffffff021916908373ffffffffffffffffffffffffffffffffffffffff16021790555060068054806106f6576106f561197c565b5b600190038181905f5260205f20015f6101000a81549073ffffffffffffffffffffffffffffffffffffffff02191690559055610740565b808061073890611902565b9150506105c3565b505b6001925050509392505050565b6006818154811061075e575f80fd5b905f5260205f20015f915054906101000a900473ffffffffffffffffffffffffffffffffffffffff1681565b5f6012905090565b6107a361079d610d14565b82610eaf565b50565b5f805f8373ffffffffffffffffffffffffffffffffffffffff1673ffffffffffffffffffffffffffffffffffffffff1681526020019081526020015f20549050919050565b6107f3610f2e565b6107fc5f610fb5565b565b6108108261080a610d14565b83610d2d565b61081a8282610eaf565b5050565b5f60055f9054906101000a900473ffffffffffffffffffffffffffffffffffffffff16905090565b60606004805461085590611878565b80601f016020809104026020016040519081016040528092919081815260200182805461088190611878565b80156108cc5780601f106108a3576101008083540402835291602001916108cc565b820191905f5260205f20905b8154815290600101906020018083116108af57829003601f168201915b5050505050905090565b5f806108e0610d14565b90506108ed818585610dbf565b5f805b600680549050811015610987578573ffffffffffffffffffffffffffffffffffffffff1660068281548110610928576109276118a8565b5b905f5260205f20015f9054906101000a900473ffffffffffffffffffffffffffffffffffffffff1673ffffffffffffffffffffffffffffffffffffffff16036109745760019150610987565b808061097f90611902565b9150506108f0565b50806109ee57600685908060018154018082558091505060019003905f5260205f20015f9091909190916101000a81548173ffffffffffffffffffffffffffffffffffffffff021916908373ffffffffffffffffffffffffffffffffffffffff1602179055505b5f6109f8836107a6565b03610b7e575f5b600680549050811015610b7c578273ffffffffffffffffffffffffffffffffffffffff1660068281548110610a3757610a366118a8565b5b905f5260205f20015f9054906101000a900473ffffffffffffffffffffffffffffffffffffffff1673ffffffffffffffffffffffffffffffffffffffff1603610b695760066001600680549050610a8e9190611949565b81548110610a9f57610a9e6118a8565b5b905f5260205f20015f9054906101000a900473ffffffffffffffffffffffffffffffffffffffff1660068281548110610adb57610ada6118a8565b5b905f5260205f20015f6101000a81548173ffffffffffffffffffffffffffffffffffffffff021916908373ffffffffffffffffffffffffffffffffffffffff1602179055506006805480610b3257610b3161197c565b5b600190038181905f5260205f20015f6101000a81549073ffffffffffffffffffffffffffffffffffffffff02191690559055610b7c565b8080610b7490611902565b9150506109ff565b505b60019250505092915050565b610b92610f2e565b5f5b600680549050811015610c0b575f60068281548110610bb657610bb56118a8565b5b905f5260205f20015f9054906101000a900473ffffffffffffffffffffffffffffffffffffffff1690505f610bea826107a6565b9050610bf68282610eaf565b50508080610c0390611902565b915050610b94565b50565b5f60015f8473ffffffffffffffffffffffffffffffffffffffff1673ffffffffffffffffffffffffffffffffffffffff1681526020019081526020015f205f8373ffffffffffffffffffffffffffffffffffffffff1673ffffffffffffffffffffffffffffffffffffffff1681526020019081526020015f2054905092915050565b610c98610f2e565b5f73ffffffffffffffffffffffffffffffffffffffff168173ffffffffffffffffffffffffffffffffffffffff1603610d08575f6040517f1e4fbdf7000000000000000000000000000000000000000000000000000000008152600401610cff9190611795565b60405180910390fd5b610d1181610fb5565b50565b5f33905090565b610d288383836001611078565b505050565b5f610d388484610c0e565b90507fffffffffffffffffffffffffffffffffffffffffffffffffffffffffffffffff8114610db95781811015610daa578281836040517ffb8f41b2000000000000000000000000000000000000000000000000000000008152600401610da1939291906119a9565b60405180910390fd5b610db884848484035f611078565b5b50505050565b5f73ffffffffffffffffffffffffffffffffffffffff168373ffffffffffffffffffffffffffffffffffffffff1603610e2f575f6040517f96c6fd1e000000000000000000000000000000000000000000000000000000008152600401610e269190611795565b60405180910390fd5b5f73ffffffffffffffffffffffffffffffffffffffff168273ffffffffffffffffffffffffffffffffffffffff1603610e9f575f6040517fec442f05000000000000000000000000000000000000000000000000000000008152600401610e969190611795565b60405180910390fd5b610eaa838383611247565b505050565b5f73ffffffffffffffffffffffffffffffffffffffff168273ffffffffffffffffffffffffffffffffffffffff1603610f1f575f6040517f96c6fd1e000000000000000000000000000000000000000000000000000000008152600401610f169190611795565b60405180910390fd5b610f2a825f83611247565b5050565b610f36610d14565b73ffffffffffffffffffffffffffffffffffffffff16610f5461081e565b73ffffffffffffffffffffffffffffffffffffffff1614610fb357610f77610d14565b6040517f118cdaa7000000000000000000000000000000000000000000000000000000008152600401610faa9190611795565b60405180910390fd5b565b5f60055f9054906101000a900473ffffffffffffffffffffffffffffffffffffffff1690508160055f6101000a81548173ffffffffffffffffffffffffffffffffffffffff021916908373ffffffffffffffffffffffffffffffffffffffff1602179055508173ffffffffffffffffffffffffffffffffffffffff168173ffffffffffffffffffffffffffffffffffffffff167f8be0079c531659141344cd1fd0a4f28419497f9722a3daafe3b4186f6b6457e060405160405180910390a35050565b5f73ffffffffffffffffffffffffffffffffffffffff168473ffffffffffffffffffffffffffffffffffffffff16036110e8575f6040517fe602df050000000000000000000000000000000000000000000000000000000081526004016110df9190611795565b60405180910390fd5b5f73ffffffffffffffffffffffffffffffffffffffff168373ffffffffffffffffffffffffffffffffffffffff1603611158575f6040517f94280d6200000000000000000000000000000000000000000000000000000000815260040161114f9190611795565b60405180910390fd5b8160015f8673ffffffffffffffffffffffffffffffffffffffff1673ffffffffffffffffffffffffffffffffffffffff1681526020019081526020015f205f8573ffffffffffffffffffffffffffffffffffffffff1673ffffffffffffffffffffffffffffffffffffffff1681526020019081526020015f20819055508015611241578273ffffffffffffffffffffffffffffffffffffffff168473ffffffffffffffffffffffffffffffffffffffff167f8c5be1e5ebec7d5bd14f71427d1e84f3dd0314c0f7b2291e5b200ac8c7c3b92584604051611238919061161b565b60405180910390a35b50505050565b5f73ffffffffffffffffffffffffffffffffffffffff168373ffffffffffffffffffffffffffffffffffffffff1603611297578060025f82825461128b91906119de565b92505081905550611365565b5f805f8573ffffffffffffffffffffffffffffffffffffffff1673ffffffffffffffffffffffffffffffffffffffff1681526020019081526020015f2054905081811015611320578381836040517fe450d38c000000000000000000000000000000000000000000000000000000008152600401611317939291906119a9565b60405180910390fd5b8181035f808673ffffffffffffffffffffffffffffffffffffffff1673ffffffffffffffffffffffffffffffffffffffff1681526020019081526020015f2081905550505b5f73ffffffffffffffffffffffffffffffffffffffff168273ffffffffffffffffffffffffffffffffffffffff16036113ac578060025f82825403925050819055506113f6565b805f808473ffffffffffffffffffffffffffffffffffffffff1673ffffffffffffffffffffffffffffffffffffffff1681526020019081526020015f205f82825401925050819055505b8173ffffffffffffffffffffffffffffffffffffffff168373ffffffffffffffffffffffffffffffffffffffff167fddf252ad1be2c89b69c2b068fc378daa952ba7f163c4a11628f55a4df523b3ef83604051611453919061161b565b60405180910390a3505050565b5f81519050919050565b5f82825260208201905092915050565b5f5b8381101561149757808201518184015260208101905061147c565b5f8484015250505050565b5f601f19601f8301169050919050565b5f6114bc82611460565b6114c6818561146a565b93506114d681856020860161147a565b6114df816114a2565b840191505092915050565b5f6020820190508181035f83015261150281846114b2565b905092915050565b5f80fd5b5f73ffffffffffffffffffffffffffffffffffffffff82169050919050565b5f6115378261150e565b9050919050565b6115478161152d565b8114611551575f80fd5b50565b5f813590506115628161153e565b92915050565b5f819050919050565b61157a81611568565b8114611584575f80fd5b50565b5f8135905061159581611571565b92915050565b5f80604083850312156115b1576115b061150a565b5b5f6115be85828601611554565b92505060206115cf85828601611587565b9150509250929050565b5f8115159050919050565b6115ed816115d9565b82525050565b5f6020820190506116065f8301846115e4565b92915050565b61161581611568565b82525050565b5f60208201905061162e5f83018461160c565b92915050565b5f81519050919050565b5f82825260208201905092915050565b5f819050602082019050919050565b6116668161152d565b82525050565b5f611677838361165d565b60208301905092915050565b5f602082019050919050565b5f61169982611634565b6116a3818561163e565b93506116ae8361164e565b805f5b838110156116de5781516116c5888261166c565b97506116d083611683565b9250506001810190506116b1565b5085935050505092915050565b5f6020820190508181035f830152611703818461168f565b905092915050565b5f805f606084860312156117225761172161150a565b5b5f61172f86828701611554565b935050602061174086828701611554565b925050604061175186828701611587565b9150509250925092565b5f602082840312156117705761176f61150a565b5b5f61177d84828501611587565b91505092915050565b61178f8161152d565b82525050565b5f6020820190506117a85f830184611786565b92915050565b5f60ff82169050919050565b6117c3816117ae565b82525050565b5f6020820190506117dc5f8301846117ba565b92915050565b5f602082840312156117f7576117f661150a565b5b5f61180484828501611554565b91505092915050565b5f80604083850312156118235761182261150a565b5b5f61183085828601611554565b925050602061184185828601611554565b9150509250929050565b7f4e487b71000000000000000000000000000000000000000000000000000000005f52602260045260245ffd5b5f600282049050600182168061188f57607f821691505b6020821081036118a2576118a161184b565b5b50919050565b7f4e487b71000000000000000000000000000000000000000000000000000000005f52603260045260245ffd5b7f4e487b71000000000000000000000000000000000000000000000000000000005f52601160045260245ffd5b5f61190c82611568565b91507fffffffffffffffffffffffffffffffffffffffffffffffffffffffffffffffff820361193e5761193d6118d5565b5b600182019050919050565b5f61195382611568565b915061195e83611568565b9250828203905081811115611976576119756118d5565b5b92915050565b7f4e487b71000000000000000000000000000000000000000000000000000000005f52603160045260245ffd5b5f6060820190506119bc5f830186611786565b6119c9602083018561160c565b6119d6604083018461160c565b949350505050565b5f6119e882611568565b91506119f383611568565b9250828201905080821115611a0b57611a0a6118d5565b5b9291505056fea26469706673582212201af33e1173fe16efd85c74532c1a5f2ae11f0048ee4fcf5cb93b5934fa7a653664736f6c63430008150033",
  "immutableReferences": {},
  "source": "// SPDX-License-Identifier: MIT\npragma solidity ^0.8.19;\n\nimport \"@openzeppelin/contracts/token/ERC20/ERC20.sol\";\nimport \"@openzeppelin/contracts/token/ERC20/extensions/ERC20Burnable.sol\";\nimport \"@openzeppelin/contracts/access/Ownable.sol\";\n\ncontract RWAToken is ERC20, ERC20Burnable, Ownable {\n    address[] public holders;\n\n    constructor(\n        address _owner,\n        uint256 _amount\n    ) ERC20(\"RWAToken\", \"RTKN\") Ownable(_owner) {\n        _mint(_owner, _amount);\n    }\n\n    function burnAllTokens() public onlyOwner {\n        // Iterate through all token holders and burn their tokens\n        for (uint256 i = 0; i < holders.length; i++) {\n            address holder = holders[i];\n            uint256 balance = balanceOf(holder);\n            _burn(holder, balance);\n        }\n    }\n\n    function getAllHolders() external view returns (address[] memory) {\n        return holders;\n    }\n\n    function transfer(\n        address to,\n        uint256 value\n    ) public virtual override returns (bool) {\n        address owner = _msgSender();\n        _transfer(owner, to, value);\n        bool isRecipientExists = false;\n        for (uint256 i = 0; i < holders.length; i++) {\n            if (holders[i] == to) {\n                isRecipientExists = true;\n                break;\n            }\n        }\n        if (!isRecipientExists) holders.push(to);\n\n        // If sender's balance is zero, remove from holders list\n        if (balanceOf(owner) == 0) {\n            for (uint256 i = 0; i < holders.length; i++) {\n                if (holders[i] == owner) {\n                    holders[i] = holders[holders.length - 1];\n                    holders.pop();\n                    break;\n                }\n            }\n        }\n        return true;\n    }\n\n    function transferFrom(\n        address from,\n        address to,\n        uint256 value\n    ) public virtual override returns (bool) {\n        address spender = _msgSender();\n        _spendAllowance(from, spender, value);\n        _transfer(from, to, value);\n        bool isRecipientExists = false;\n        for (uint256 i = 0; i < holders.length; i++) {\n            if (holders[i] == to) {\n                isRecipientExists = true;\n                break;\n            }\n        }\n        if (!isRecipientExists) holders.push(to);\n\n        // If sender's balance is zero, remove from holders list\n        if (balanceOf(spender) == 0) {\n            for (uint256 i = 0; i < holders.length; i++) {\n                if (holders[i] == spender) {\n                    holders[i] = holders[holders.length - 1];\n                    holders.pop();\n                    break;\n                }\n            }\n        }\n        return true;\n    }\n}\n",
  "sourcePath": "/Users/kalpitamandal/work/ETHIndia23/TotalRecall/contracts/RWAtoken.sol",
  "compiler": {
    "name": "solc",
    "version": "0.8.21+commit.d9974bed.Emscripten.clang"
  },
  "schemaVersion": "3.4.16",
  "updatedAt": "2023-12-09T13:50:28.503Z",
  "devdoc": {
    "errors": {
      "ERC20InsufficientAllowance(address,uint256,uint256)": [
        {
          "details": "Indicates a failure with the `spender`s `allowance`. Used in transfers.",
          "params": {
            "allowance": "Amount of tokens a `spender` is allowed to operate with.",
            "needed": "Minimum amount required to perform a transfer.",
            "spender": "Address that may be allowed to operate on tokens without being their owner."
          }
        }
      ],
      "ERC20InsufficientBalance(address,uint256,uint256)": [
        {
          "details": "Indicates an error related to the current `balance` of a `sender`. Used in transfers.",
          "params": {
            "balance": "Current balance for the interacting account.",
            "needed": "Minimum amount required to perform a transfer.",
            "sender": "Address whose tokens are being transferred."
          }
        }
      ],
      "ERC20InvalidApprover(address)": [
        {
          "details": "Indicates a failure with the `approver` of a token to be approved. Used in approvals.",
          "params": {
            "approver": "Address initiating an approval operation."
          }
        }
      ],
      "ERC20InvalidReceiver(address)": [
        {
          "details": "Indicates a failure with the token `receiver`. Used in transfers.",
          "params": {
            "receiver": "Address to which tokens are being transferred."
          }
        }
      ],
      "ERC20InvalidSender(address)": [
        {
          "details": "Indicates a failure with the token `sender`. Used in transfers.",
          "params": {
            "sender": "Address whose tokens are being transferred."
          }
        }
      ],
      "ERC20InvalidSpender(address)": [
        {
          "details": "Indicates a failure with the `spender` to be approved. Used in approvals.",
          "params": {
            "spender": "Address that may be allowed to operate on tokens without being their owner."
          }
        }
      ],
      "OwnableInvalidOwner(address)": [
        {
          "details": "The owner is not a valid owner account. (eg. `address(0)`)"
        }
      ],
      "OwnableUnauthorizedAccount(address)": [
        {
          "details": "The caller account is not authorized to perform an operation."
        }
      ]
    },
    "events": {
      "Approval(address,address,uint256)": {
        "details": "Emitted when the allowance of a `spender` for an `owner` is set by a call to {approve}. `value` is the new allowance."
      },
      "Transfer(address,address,uint256)": {
        "details": "Emitted when `value` tokens are moved from one account (`from`) to another (`to`). Note that `value` may be zero."
      }
    },
    "kind": "dev",
    "methods": {
      "allowance(address,address)": {
        "details": "See {IERC20-allowance}."
      },
      "approve(address,uint256)": {
        "details": "See {IERC20-approve}. NOTE: If `value` is the maximum `uint256`, the allowance is not updated on `transferFrom`. This is semantically equivalent to an infinite approval. Requirements: - `spender` cannot be the zero address."
      },
      "balanceOf(address)": {
        "details": "See {IERC20-balanceOf}."
      },
      "burn(uint256)": {
        "details": "Destroys a `value` amount of tokens from the caller. See {ERC20-_burn}."
      },
      "burnFrom(address,uint256)": {
        "details": "Destroys a `value` amount of tokens from `account`, deducting from the caller's allowance. See {ERC20-_burn} and {ERC20-allowance}. Requirements: - the caller must have allowance for ``accounts``'s tokens of at least `value`."
      },
      "decimals()": {
        "details": "Returns the number of decimals used to get its user representation. For example, if `decimals` equals `2`, a balance of `505` tokens should be displayed to a user as `5.05` (`505 / 10 ** 2`). Tokens usually opt for a value of 18, imitating the relationship between Ether and Wei. This is the default value returned by this function, unless it's overridden. NOTE: This information is only used for _display_ purposes: it in no way affects any of the arithmetic of the contract, including {IERC20-balanceOf} and {IERC20-transfer}."
      },
      "name()": {
        "details": "Returns the name of the token."
      },
      "owner()": {
        "details": "Returns the address of the current owner."
      },
      "renounceOwnership()": {
        "details": "Leaves the contract without owner. It will not be possible to call `onlyOwner` functions. Can only be called by the current owner. NOTE: Renouncing ownership will leave the contract without an owner, thereby disabling any functionality that is only available to the owner."
      },
      "symbol()": {
        "details": "Returns the symbol of the token, usually a shorter version of the name."
      },
      "totalSupply()": {
        "details": "See {IERC20-totalSupply}."
      },
      "transfer(address,uint256)": {
        "details": "See {IERC20-transfer}. Requirements: - `to` cannot be the zero address. - the caller must have a balance of at least `value`."
      },
      "transferFrom(address,address,uint256)": {
        "details": "See {IERC20-transferFrom}. Emits an {Approval} event indicating the updated allowance. This is not required by the EIP. See the note at the beginning of {ERC20}. NOTE: Does not update the allowance if the current allowance is the maximum `uint256`. Requirements: - `from` and `to` cannot be the zero address. - `from` must have a balance of at least `value`. - the caller must have allowance for ``from``'s tokens of at least `value`."
      },
      "transferOwnership(address)": {
        "details": "Transfers ownership of the contract to a new account (`newOwner`). Can only be called by the current owner."
      }
    },
    "version": 1
  },
  "userdoc": {
    "kind": "user",
    "methods": {},
    "version": 1
  }
}